:020000040800F2
:100000003015002001010008090100080B0100085B
:100010000D0100080F010008110100080000000098
:1000200000000000000000000000000013010008B4
:100030001501000800000000170100080D4100082C
:100040001B0100081B0100081B0100081B01000820
:100050001B0100081B0100081B0100081B01000810
:100060001B0100081B0100081B0100081B01000800
:100070001B0100081B0100081B0100081B010008F0
:100080001B0100081B0100081B0100081B010008E0
:100090001B0100081B0100081B0100081B010008D0
:1000A0001B0100081B0100081B0100081B010008C0
:1000B0001B0100081B0100081B0100081B010008B0
:1000C0001B0100081B0100081B0100081B010008A0
:1000D0001B0100086D4600081B010008A946000826
:1000E0001B0100081B0100081B010008DFF80CD0F1
:1000F00000F0F4FA00480047754C00083015002065
:100100000648804706480047FEE7FEE7FEE7FEE7B1
:10011000FEE7FEE7FEE7FEE7FEE7FEE755430008E1
:10012000ED000008202A04DB203A21FA02F0002129
:10013000704721FA02F3D040C2F1200291400843F7
:1001400019467047421E12F8013F002BFBD111F8EF
:10015000013B02F8013B002BF9D1704730B5054651
:100160002A460B4612F8010B13F8014B08B1A042C6
:10017000F8D01CB1002802D06D1CF1E7284630BD34
:1001800010B5044604E00B7800F8013B03B1491CAC
:10019000521EF8D2204610BD421C10F8011B002947
:1001A000FBD1801A7047034611F8012B00F8012B90
:1001B000002AF9D11846704770B50F4D00B928686C
:1001C000002412E00A4602E09E4203D0521C13783B
:1001D000002BF9D1DAB2224305D02BB124B1002192
:1001E00000F8011B04E00446401C0678002EE9D10B
:1001F0002860204670BD0000C400002070B506468F
:1002000004F0A8FA046805460A220021304600F0EE
:1002100099F92C6070BDF0B480EA0102D40F42005D
:10022000B2EB410F02D20246084611464A0042D0C4
:10023000C30DDDB2C1F3C752AD1A202D35DAC1F3BB
:10024000160141F4000204B15242C5F1200602FA3F
:1002500006F12A411044B3EBD05F23D0C4B1012D85
:10026000A0EBC35009DCF0BC4FF0004202EAC352DD
:10027000DBB200F5000000F0A6B9400000F180708C
:1002800000EBC350A0F1807040EAD170490009E052
:10029000490841EAC071A0EBC35000F500004008D6
:1002A00000EBC350F0BC00F085B96142012202EBC3
:1002B0004101001BF6E7F0BC704781F00041AAE75E
:1002C00080F00040A7E780EA010210B502F0004389
:1002D000400022D04A001FD0010E01EB1261C0F392
:1002E0005600C2F3560240F4000042F40002A0FBA4
:1002F000022000047F39140400D0401C50EA124050
:1003000001D44000491EC2B20C0604EBD010401CC0
:100310004008802A02D003E0002010BD20F0010038
:10032000002900DA0020184310BD30B480EA010231
:1003300002F0004530F0004221F0004013D090B1AF
:10034000C30DD40DC2F31601C0F31600E41A41F434
:10035000000140F400027D34914201D3641C00E0AE
:100360004900002C02DA30BC002070474FF4000036
:100370000023914201D3891A034340084FEA410107
:10038000F7D151B1914202D14FF0004105E002D2C4
:100390004FF0010101E06FF0010103EBC45028446C
:1003A00030BC00F007B92DE9F04D81EA030404F0F8
:1003B000004B21F0004514464FF0000A23F00041A5
:1003C00050EA050220D054EA01021DD0C5F30A57B5
:1003D0000246C5F31303C1F31300C1F30A5640F4F8
:1003E000801543F48013A7EB0608101BD64608F2CD
:1003F000FD3873EB050002D308F1010801E0921803
:100400005B41B8F1000F03DA00200146BDE8F08D32
:1004100000204FF48011064684460EE0171B73EB54
:10042000050705D3121B63EB050306434CEA010CD9
:1004300049084FEA300092185B4150EA0107EDD1BC
:1004400052EA030012D082EA040083EA050108435D
:1004500005D0101BAB4106D20122002306E000228A
:100460004FF0004302E06FF0010253101AEB060058
:100470004CEB085110EB0A0041EB0B01BDE8F04DCD
:1004800000F0CFB896230022114600F09CB80EB5BC
:1004900040F2334102910021CDE900110A460B469A
:1004A00000F0CEF803B000BD00F0004220F00040A4
:1004B000C10DC0F3160040F400007F2901DA0020CE
:1004C0007047962903DCC1F19601C84001E09639D6
:1004D0008840002AF4D04042704770B5C1F30A52F8
:1004E00001F000450024C1F3130140F2FF3341F451
:1004F00080119A4201DA002070BD40F233439A42E3
:10050000A2F2334203DC5242FFF70CFE00E09040BF
:100510002C43F1D0404270BD30B50B46014600205F
:100520002022012409E021FA02F59D4205D303FAB5
:1005300002F5491B04FA02F52844151EA2F1010236
:10054000F1DC30BD2DE9F04791460F468046044668
:10055000002614F8015B2DB100F0E2F80068405D60
:10056000C007F6D12B2D02D02D2D18D0641E4A467F
:100570003946204600F0D8F827B13968A14201D1A8
:10058000C7F8008071054FF002040BD540420028E7
:1005900003DD04F0DFF80460A007BDE8F08746F44F
:1005A0008066E4E70028F8DA04F0D4F804606FF01D
:1005B0000040F2E70029A8BF7047401C490008BF6F
:1005C00020F00100704710B4B0FA80FC00FA0CF083
:1005D00050EA010404BF10BC704749B1CCF12004BB
:1005E00021FA04F411FA0CF118BF01212143084348
:1005F000A3EB0C01CB1D4FEA00614FEA102042BF74
:10060000002010BC704700EBC35010440029A4BF69
:1006100010BC7047401C490008BF20F0010010BC0E
:10062000704710B5141E73F1000408DA401C41F144
:10063000000192185B411A4301D120F0010010BD66
:100640002DE9F04D92469B4611B1B1FA81F202E0DC
:10065000B0FA80F22032904600F052F804460F467D
:1006600040EA0A0041EA0B0153465A46084313D0B8
:10067000114653EA010019D0C8F140025046FFF775
:1006800051FD05460E4650465946424600F038F8A0
:10069000084305D0012004E020463946BDE8F08D2E
:1006A0000020054346EAE0762C4337430A98630569
:1006B000E40AA0EB08000022FD0A44EA47540A308D
:1006C00002D500200146E9E7010510196941DDE97D
:1006D000084500196941BDE8F04DA2E7064C074DF9
:1006E00006E0E06840F0010394E807009847103402
:1006F000AC42F6D3FFF7FEFC9C620008BC62000827
:10070000202A04DB203A00FA02F1002070479140D1
:10071000C2F1200320FA03F3194390407047000010
:1007200000487047986200082DE9F05F8246007823
:10073000002715468B460AF10104B946302801D03E
:100740009DB113E014F8010B0127782803D0582835
:1007500001D045B10AE00DB1102D07D100271025B9
:1007600014F8010B02E0082500E00A250026B04637
:100770000EE005FB080005FB06F1012701EB104622
:100780001FFA80F8B6F5803F00D3B94614F8010B84
:10079000294600F018F80028EBDABBF1000F05D06D
:1007A0000FB1641E00E05446CBF80040B9F1000FD1
:1007B00006D003F0CFFF02210160C81EBDE8F09F04
:1007C00048EA0640FAE73A2800D2303820F0200202
:1007D000412A01D3A2F13700884201D34FF0FF3004
:1007E000704770B5044600688168C943C9071BD1CA
:1007F000816821F00101816000F03EFD05460EE0B8
:1008000000F03AFD401B022809D9A06A40F0100010
:10081000A062E06A40F00100E062012070BD206843
:100820008068C043C007EBD0002070BDF8B500263B
:100830000446009600688168C943C90727D08168CB
:1008400041F001018160134813490068B0FBF1F0E9
:1008500000E0401E00900028FBD100F00DFD054691
:1008600010E000F009FD401B02280BD9A06A40F0FF
:100870001000A062E06A40F00100E06284F82460A9
:100880000120F8BD20688068C043C007E9D100207E
:10089000F8BD0000C000002040420F0041F2883245
:1008A00003E00021491C9142FCD3401EF9D270475D
:1008B0002DE9F041134C144D144E154800F0E6FAA2
:1008C000144F1348394600F049FA0028F9D110486E
:1008D00000F04CF980B2FFF7D5FD3146FFF7F3FC8D
:1008E00001462846FFF7E9FC2146FFF71EFD0A49AD
:1008F000FFF791FC0949FFF7E0FCBDE8F041FFF785
:10090000D3BD000004E78C3B3D0AB73F3333533A75
:10091000FC00002040420F000000C8410000E04100
:10092000F8B50023009390F824209E46012A1ED09B
:10093000012280F824204A681F254FF47874072A82
:1009400017D20668776B94FAA4FCBCFA8CFC521E92
:1009500002FB0CFC05FA0CF5AF4394FAA4F4B4FACC
:1009600084F40D68624395402F4377632DE00220A5
:10097000F8BD06680D2A14D2376B94FAA4FCBCFAB1
:100980008CFCD21F02FB0CFC05FA0CF5AF4394FA69
:10099000A4F4B4FA84F40D68624395402F4337639E
:1009A00013E0F76A94FAA4FCBCFA8CFC0D3A02FB43
:1009B0000CFC05FA0CF5AF4394FAA4F4B4FA84F4F1
:1009C0000D68624395402F43F7620A683825072671
:1009D00004680A2A14D3E76895FAA5FCBCFA8CFCD3
:1009E0000A3A02FB0CFC06FA0CF6B74395FAA5F599
:1009F000B5FA85F58E686A4396403743E76012E0A2
:100A0000276995FAA5FCBCFA8CFC02FB0CFC06FAE3
:100A10000CF6B74395FAA5F5B5FA85F58E686A43E5
:100A20009640374327610A68102A01D0112A20D145
:100A3000124C0268A24217D19468240219D4946817
:100A400044F4000494600968102912D10C490D4A3D
:100A50000968B1FBF2F101EB8101490000E0491E98
:100A600000910029FBD104E0816A41F020018162FC
:100A7000012380F824E01846F8BD0000002401405E
:100A8000C000002040420F0070B504000BD0A06AE7
:100A900040F00200A0622046FFF7A3FE05004FF0E1
:100AA000000602D05AE0012070BD21686FF01F00DF
:100AB0000860206841682B4A1140416020688168C5
:100AC000294A114081602068C16801F07F41C160FE
:100AD0002068016901F040410161206841696FF3BC
:100AE0000B014161206881696FF30B01816120680E
:100AF000C1696FF30B01C1612068016A6FF30B01DB
:100B000001622068416A6FF30B0141622068816ACB
:100B10006FF30B0181622068C16A01F07F41C162FD
:100B20002068C16A01F07F41C1622068016B01F059
:100B3000404101632068416B01F0404141632068FE
:100B4000816B6FF3150181632068816B6FF3150171
:100B50008163204600F0A6F8E662A66284F824606D
:100B6000284670BD00003FFFF00601FF0068C06C22
:100B7000704700002DE9F04104004FF0000513D04C
:100B8000A06A002628B9E66284F82460204600F0B6
:100B9000AFF82046FFF725FEA16AC90600D420B1B0
:100BA000A06A40F01000A06275E0A16A21F48851AB
:100BB00041F00201A1626268E169E3680A4302212F
:100BC00091FAA1F1B1FA81F103FA01F10A43A168A6
:100BD0004FF48077B94208D0012906D00021D4F81B
:100BE00014C0BCF1010F02D00AE03946F7E7CBB3DD
:100BF000A36A43F02003A362E36A43F00103E362C4
:100C00002368D3F804C02CF4694C4CEA010CC3F8F7
:100C100004C021688B68DFF884C003EA0C03134327
:100C20008B60A168B94208D14FF47001256991FA2F
:100C3000A1F1B1FA81F16D1E8D402168CB6A23F4D8
:100C400070032B43CB6221688968154B1940914290
:100C500017D1E662A16A21F0020141F00101A1620F
:100C6000BDE8F081FFE74FF4604CA3699CFAACFC4F
:100C7000BCFA8CFC5B1E03FA0CF30B4343F40061DB
:100C8000BEE7A06A20F0020040F01000A062E06A17
:100C900040F00100E0620120E2E70000FDF7E1FF23
:100CA000FE0E1FFF10B500680C4A0D49904204D19A
:100CB000886920F40070886110BD0A4A9042FBD117
:100CC000886920F480608861E021074800F074F9A9
:100CD000BDE810400121054800F06EB90024014034
:100CE000001002400028014000080140000C0140B3
:100CF00010B50068144A154986B0904209D1886938
:100D000040F400708861886900F40070049006B0B7
:100D100010BD0F4A9042FAD1886940F48060886122
:100D20008869032400F480600490E020CDE9000489
:100D30006946084800F0B2F90120CDE9000469468F
:100D4000054800F0ABF9E2E7002401400010024042
:100D50000028014000080140000C01402DE9F84343
:100D60004FF000080D460446CDF8008000F084FAEC
:100D7000064620688168C90508D5A06A40F02000B1
:100D8000A06284F824800120BDE8F8834168C90589
:100D900003D4C06A10F4700F25D0022000F05CFB71
:100DA00037490968B1FBF0F720680169354A1142FB
:100DB0004FEA62024FEAA2131AD1C1684FEA621CDD
:100DC00011EA0C0F14D10169114220D1C0681842F8
:100DD0001DD114201EE0681C05D035B300F04CFA7C
:100DE000801BA84221D8206800688007F3D529E03D
:100DF0000169114202D1C168194206D00269224933
:100E00000A4206D1C068084203D1542002E02920DA
:100E100000E0FC204743009812E0681C0DD025B18B
:100E200000F02AFA801BA84207D9A06A40F004000B
:100E3000A06284F824800320A6E70098401C00905C
:100E4000B842EAD321686FF012000860A06A40F44B
:100E50000070A06220688068C0F3424007280CD16F
:100E6000E06850B9A06A20F48070A062A06AC00453
:100E700003D4A06A40F00100A062002084E70000D3
:100E8000C0000020244992244992240070B50446F1
:100E900090F8240001280DD0012084F82400204679
:100EA000FFF7C4FC01004FF0000205D084F82420B5
:100EB000084670BD022070BDA06A40F2012398432D
:100EC00040F48070A0621F4D20681F4BA84218D1CB
:100ED0001E6816F4702F14D0A66A46F48016A66217
:100EE0001E68760505D5A66A26F4005646F4805697
:100EF000A662A66AF6040AD5E66A26F00606E66247
:100F000006E0A66A26F48016A6624668E9E7E26271
:100F100084F824206FF00202026020688268C2F325
:100F20004242072A05D1A84208D11A6812F4702F4C
:100F300004D0826842F480128260B9E7826842F489
:100F4000A002F9E7002801400424014010B504463E
:100F500090F82400012807D0012084F824002046BE
:100F6000FFF73FFC10B107E0022010BDA16A21F499
:100F7000885141F00101A162002184F8241010BDC4
:100F8000064810B54FF0FF31C16000220261C16018
:100F9000C26000F0D0F9002010BD00000010024037
:100FA00031B500F069F9044600F066F90099001BBC
:100FB0008842F9D338BD00002DE9F04300220F2705
:100FC000DFF8C09059E0012393400B4054D0FF2B31
:100FD00001D8054601E000F104054FEA820401D979
:100FE000A4F12004D5F800C007FA04F82CEA080C94
:100FF0004FF0040808FA04F84CEA080CC5F800C0E1
:10100000C46824EA0304C46022F003054D44AC68BC
:101010004FEA827C4FEA1C7C07FA0CF606EA0408C9
:10102000194CA04201D100240FE0184CA04201D17C
:1010300001240AE0164CA04201D1022405E0154C1F
:10104000A04201D1032400E0042404FA0CF4444536
:1010500012D1AC68B443AC600F4C25689D43256049
:10106000241D25689D432560241D25689D4325601A
:10107000241D25689D432560521C31FA02F3A2D13C
:10108000BDE8F0830000014000080140000C014071
:101090000010014000140140000401402DE9F84F08
:1010A000DFF8A091002309F1040A0AF1040B1C46A1
:1010B0004FF00F080BF1040E01270A68A7403A40D1
:1010C000BA4272D1DFF880C14D68A5EB0C066545C8
:1010D0002BD00DDC032D34D005DC35B3012D19D018
:1010E000022D2FD11BE0112D16D0122D2AD119E07F
:1010F000B6F5881F19D006DCB6F5803F15D0B6F5D9
:10110000801F1FD111E0B6F5001F0ED0B6F5041FE9
:1011100018D10AE0CB6815E0CB681B1D12E0CB6844
:1011200008330FE0CB680C330CE08B682BB1012B3C
:101130004FF0080303D0476104E0042302E0076195
:1011400000E00023FF2A01D8064601E000F1040672
:101150004FEA840501D9A5F12005376808FA05FC96
:1011600027EA0C0703FA05F547EA050737604D68DB
:10117000ED0060D5354DAE6946F00106AE61AD6952
:1011800024F0030605F001050095314D7719BE687E
:10119000A5072D0F08FA05FC26EA0C06DFF8B4C0F7
:1011A000604503D14FF0000C17E044E0DFF8A8C021
:1011B000604502D14FF0010C0FE0DFF8A0C06045A0
:1011C00002D14FF0020C08E0DFF894C0604502D174
:1011D0004FF0030C01E04FF0040C0CFA05FC4CEA54
:1011E000060CC7F808C04D68D9F80060ED034D46FD
:1011F00001D5164300E096432E604D68DAF8006092
:10120000AD03554601D5164300E096432E604D6868
:10121000DBF80060ED025D4601D5164300E0964321
:101220002E604D68DEF80060AD02754601D51643AC
:1012300000E096432E60641C102CFFF43DAFBDE827
:10124000F88F00000004014000001110001002405F
:101250000000014000080140000C01400010014066
:10126000001401408068084000D0012070470AB196
:10127000016170470904FBE70148006870470000FE
:10128000B800002010B5040008D02068C168C94328
:10129000C90705D1C068C043800701D4012010BD33
:1012A000607B20B900202073204600F018F802204F
:1012B0006073216845F25550086020684168626893
:1012C00021F007011143416020688168A2686FF333
:1012D0000B011143816001206073002010BD704735
:1012E00002480168491C016070470000B8000020F6
:1012F000074810B5016841F010010160032000F0BB
:1013000087F8002000F006F800F016F8002010BD65
:101310000020024010B5044600F0FEFA4FF47A7146
:10132000B0FBF1F001F06DFA00222146501E00F0F2
:101330004FF8002010BD7047184808B5816941F08A
:1013400001018161806900F001000090032000F03C
:101350005FF8002211466FF00B0000F039F8002210
:1013600011466FF00A0000F033F8002211466FF0CA
:10137000090000F02DF800221146101F00F028F897
:1013800000221146501E00F023F80548416821F064
:10139000E06141F00071416008BD000000100240B2
:1013A0000000014000F01F0201219140400980002F
:1013B00000F1E020C0F88011704700F01F02012109
:1013C00091404009800000F1E020C0F80011704712
:1013D000F0B40E4B1B68C3F30223C3F10704042CC3
:1013E00000D904241D1D072D01D2002300E0DB1EBF
:1013F000012606FA04F56D1E0D409D409E40761EA6
:10140000164045EA0601F0BC01F01ABF0CED00E001
:10141000064A00F0070110684FF6FF03184040EA43
:101420000120034908431060704700000CED00E004
:101430000000FA05BFF34F8F05480168054A01F423
:10144000E06111430160BFF34F8F00BFFDE7000073
:101450000CED00E00400FA0510B5014632A086B09C
:101460001DC88DE81D0034A0344C00680490002095
:10147000012930D0022947D010292AD16168226879
:10148000D20126D54FF4701292FAA2F201F4701034
:10149000B2FA82F2D040C9031DF8000010D561688D
:1014A0004FF4003292FAA2F201F40031B2FA82F261
:1014B000D14004AA515C224AB2FBF1F1484301E059
:1014C000204948436168490203D440000321B0FB2E
:1014D000F1F006B010BD216AC1F30122012A03D147
:1014E000890701D5D003F4E7022A05D1616A89078B
:1014F00002D549F64040ECE7032AEAD12168890386
:10150000E7D54FF22440E4E700F036FA61684FF483
:10151000804292FAA2F201F44041B2FA82F2D14042
:10152000491C4900D3E70000020304050607080927
:101530000A0B0C0D0E0F10100102000000100240EB
:1015400000127A0000093D002DE9F84304460078B6
:10155000444EC00772D0F06940F08050F061F069ED
:10156000414F00F080500090386840F4807038603F
:10157000FFF782FE054604E0FFF77EFE401B64286D
:1015800031D83868C005F7D5306AA18800F44070BA
:1015900001F44071884251D0306A01273B0493FA2C
:1015A000A3F1B1FA81F18A00304920F440700A4475
:1015B000C2F8007493FAA3F3B3FA83F301EB830147
:1015C0000022C1F800243062800731D5FFF754FEB5
:1015D000054641F288394FF0020807E0FFF74CFE5C
:1015E000411B494502D90320BDE8F88398FAA8F0C9
:1015F000B0FA80F040F040004146B7EB501F01D1F7
:1016000030680BE091FAA1F0B0FA80F040F04000B1
:10161000B1EB501F01D1306A00E0706A98FAA8F16E
:10162000B1FA81F101F01F0207FA02F10842D5D0A8
:10163000306A616820F44070084330622078800787
:1016400005D57068A16820F4404008437060207898
:10165000C00605D57068E16820F48000084370601A
:101660000020C1E70010024000700040000042422C
:101670002DE9F047DFF8549204460F46D9F80000F0
:10168000934D00F007010120430446064FF0020C81
:1016900041F28838B94274D2D9F8002022F007020A
:1016A0003A43C9F80020D9F8001001F00701B94207
:1016B00068D12178890705D56968A26821F0F00111
:1016C000114369602178C9074FD0616801290BD0A7
:1016D000022917D09CFAACF2B2FA82F242F0200250
:1016E00052091DD02A681CE093FAA3F2B2FA82F2E2
:1016F00042F02002520901D02A6800E06A6A93FA97
:10170000A3F310E096FAA6F2B2FA82F242F02002B7
:10171000520901D02A6800E06A6A96FAA6F302E04C
:101720006A6A9CFAACF3B3FA83F303F01F039840A0
:10173000024227D0686820F0030008436860FFF782
:101740009BFD06466068012809D00228474612D052
:101750001EE0FFF791FD801BB84201D988E04746A3
:101760006868C0F381000128F3D197E0FFF784FD9A
:10177000801BB8427CD86868C0F381000228F5D18C
:101780008CE00AE088E0FFF777FD801BB8426FD855
:10179000686810F00C0FF6D180E02178890705D534
:1017A0006968A26821F0F001114369602178C907D6
:1017B00065D0616801290BD0022917D09CFAACF2E0
:1017C000B2FA82F242F0200252091DD02A681CE0CF
:1017D00093FAA3F2B2FA82F242F02002520901D047
:1017E0002A6800E06A6A93FAA3F310E096FAA6F278
:1017F000B2FA82F242F02002520901D02A6800E0D7
:101800006A6A96FAA6F302E06A6A9CFAACF3B3FA43
:1018100083F303F01F03984002423DD0686820F034
:10182000030008436860FFF727FD0646606801284B
:1018300007D0022810D01EE0FFF71EFD811B414596
:1018400016D86868C0F381000128F5D117E0FFF7CA
:1018500013FD811B41450BD86868C0F38100022845
:10186000F5D10CE004E0FFF707FD811B414502D9EB
:101870000320BDE8F087686810F00C0FF3D1D9F8A9
:10188000001021F007013943C9F80010D9F8000011
:1018900000F00700B84201D00120EAE720784007B5
:1018A00005D56868E16820F4E06008436860207846
:1018B000000706D56868216920F4605040EAC1003D
:1018C00068600020FFF726FD0020D2E700200240DC
:1018D000001002400E4810B5416821F0030141603C
:1018E00001680C4A11400160016821F48021016007
:1018F000002141600268F82494FAA4F41023B4FA99
:1019000084F422F0F802A3401A430260816010BD03
:1019100000100240FFFFF6FE00B500F043F8084952
:101920004968F02292FAA2F201F0F001B2FA82F2D2
:10193000D140044A515CC8400349086000BD000022
:101940000010024004620008C000002000B5FFF74C
:10195000E3FF074949684FF4E06292FAA2F201F40A
:10196000E061B2FA82F2D140024A515CC84000BD47
:10197000001002400462000800B5FFF7CDFF0749E0
:1019800049684FF4605292FAA2F201F46051B2FA3F
:1019900082F2D140024A515CC84000BD00100240B2
:1019A0000462000810B519A085B00FC88DE80F00BB
:1019B0001AA01B4B0068049059681A4801F00C02E9
:1019C000042A1DD0082A1BD14FF4701494FAA4F4F1
:1019D00001F47012B4FA84F4E240C9031DF8022045
:1019E00010D559684FF4003393FAA3F301F4003192
:1019F000B3FA83F3D94004AB595CB0FBF1F0504328
:101A000005B010BD08485043FAE700000203040582
:101A1000060708090A0B0C0D0E0F1010010200003A
:101A20000010024000127A0000093D002DE9F84F35
:101A300004460078FB4DC0074FF0010625D06868CA
:101A40007704C0F38100012807D06868C0F38100E3
:101A500002281BD16868C00318D597FAA7F0B0FA1E
:101A600080F040F02000400901D0286800E0686A5A
:101A700097FAA7F1B1FA81F101F01F0106FA01F11D
:101A8000084202D06068002878D083E0286820F4FB
:101A900080302860286820F480202860FFF7ECFB65
:101AA000804641F2883905E0FFF7E6FBA0EB08012C
:101AB00049457CD897FAA7F0B0FA80F040F02000B2
:101AC000400901D0286800E0686A97FAA7F1B1FAE6
:101AD00081F101F01F0106FA01F10842E4D16068CA
:101AE000B0F5803F0BD010B1B0F5A02F11D0286811
:101AF00020F480302860286820F4802002E02868E4
:101B000040F480302860606820B3FFF7B5FB804662
:101B10000AE0286840F480202860F0E7FFF7ACFB7B
:101B2000A0EB08014945C4D897FAA7F0B0FA80F0B5
:101B300040F02000400901D0286800E0686A97FA68
:101B4000A7F1B1FA81F101F01F0106FA01F1084293
:101B5000E4D01FE0FFF790FB804605E0FFF78CFB29
:101B6000A0EB08014945A4D897FAA7F0B0FA80F095
:101B700040F02000400902D0286801E0B2E0686A25
:101B800097FAA7F1B1FA81F101F01F0106FA01F10C
:101B90000842E3D12078DFF8909280074FF0000BE5
:101BA0004FF0020732D5686810F00C0F00E08FE1AB
:101BB0004FF0F80A07D06868C0F38100022826D1E8
:101BC0006868C00323D497FAA7F0B0FA80F040F019
:101BD0002000400901D0286800E0686A97FAA7F160
:101BE000B1FA81F101F01F0106FA01F1084202D0B9
:101BF0002069012876D128689AFAAAF26169B2FAB6
:101C000082F220F0F80091400843286059E02069F2
:101C100080B396FAA6F0B0FA80F049F82060FFF79A
:101C20002BFB804605E0FFF727FBA0EB08006428AC
:101C300099D897FAA7F0B0FA80F040F02000400958
:101C400001D0286800E0686A97FAA7F1B1FA81F13B
:101C500001F01F0106FA01F10842E4D02868626928
:101C600020F0F8019AFAAAF0B0FA80F0824011430D
:101C7000296026E0FFE796FAA6F1B1FA81F149F86A
:101C800021B0FFF7F9FA8246B04605E0FFF7F4FA13
:101C9000A0EB0A006428CBD897FAA7F0B0FA80F03E
:101CA00040F02000400901D0286800E0686A97FAF7
:101CB000A7F1B1FA81F101F01F0208FA02F108421E
:101CC000E4D1207800076DD5A069B8B396FAA6F0E4
:101CD000B0FA80F009EB8000C0F88064FFF7CCFA1E
:101CE000804606E0A8E1FFF7C7FAA0EB08006428E9
:101CF0009ED897FAA7F0B0FA80F040F06000B6EBFB
:101D0000501F01D128680BE097FAA7F0B0FA80F0D5
:101D100040F06000B7EB501F01D1286A00E0686A0C
:101D200097FAA7F1B1FA81F101F01F0106FA01F269
:101D30001042D8D00120FFF733F933E0FFE796FADD
:101D4000A6F1B1FA81F109EB8101C1F880B4FFF786
:101D500093FA804605E0FFF78FFAA0EB08006428AD
:101D600099D897FAA7F0B0FA80F040F06000B6EB8F
:101D7000501F01D128680BE097FAA7F0B0FA80F065
:101D800040F06000B7EB501F01D1286A00E0686A9C
:101D900097FAA7F1B1FA81F101F01F0106FA01F2F9
:101DA0001042D8D12078400770D5E86940F08050C3
:101DB000E861E869DFF874A000F080500090DAF87C
:101DC000001041F48071CAF80010FFF755FA804600
:101DD00005E0FFF751FAA0EB0800642878D8DAF89C
:101DE0000000C005F5D5286A20F001002862286AA5
:101DF00020F004002862FFF73FFA804641F2883A5B
:101E000005E0FFF739FAA0EB0801514560D897FAD1
:101E1000A7F0B0FA80F040F04000B6EB501F07D1B9
:101E2000286811E0001002400000424200700040AB
:101E300097FAA7F0B0FA80F040F04000B7EB501FDF
:101E400001D1286A00E0686A97FAA7F1B1FA81F136
:101E500001F01F0106FA01F10842D2D1E068012821
:101E60000AD008B1052812D0286A20F001002862A3
:101E7000286A20F0040002E0286A40F0010028628D
:101E8000E06890B3FFF7F8F980460BE059E0286A64
:101E900040F004002862EFE7FFF7EEF9A0EB08013D
:101EA000514515D897FAA7F0B0FA80F040F04000FD
:101EB000B6EB501F01D128680CE097FAA7F0B0FAF2
:101EC00080F040F04000B7EB501F02D1286A01E0DB
:101ED00094E0686A97FAA7F1B1FA81F101F01F0264
:101EE00006FA02F10842D7D02BE0FFE7FFF7C4F96A
:101EF000804605E0FFF7C0F9A0EB080151457DD809
:101F000097FAA7F0B0FA80F040F04000B6EB501F0F
:101F100001D128680BE097FAA7F0B0FA80F040F002
:101F20004000B7EB501F01D1286A00E0686A97FAB9
:101F3000A7F1B1FA81F101F01F0206FA02F108429D
:101F4000D8D1E06990B36968C1F38101022973D0E7
:101F500002284FF080714FF0007A58460AD091FA6B
:101F6000A1F1B1FA81F149F82100FFF785F90446A2
:101F700057466AE08B4691FAA1F1B1FA81F149F82E
:101F80002100FFF779F9B0460746564604E0FFF70F
:101F900073F9C01B642855D896FAA6F0B0FA80F001
:101FA00040F02000400902D0286801E062E0686A41
:101FB00096FAA6F1B1FA81F101F01F0208FA02F1D6
:101FC0000842E4D1206AB0F5803F05D16868A16875
:101FD00020F4003008436860D4E9080108436968C8
:101FE00021F47411084368609BFAABF0B0FA80F0FA
:101FF000474649F82080FFF73FF900E022E0044619
:1020000004E0FFF739F9001B64281BD896FAA6F004
:10201000B0FA80F040F02000400901D0286800E0CC
:10202000686A96FAA6F1B1FA81F101F01F0107FA88
:1020300001F10842E5D01DE01EE0FFF71DF9001B8D
:10204000642802D90320BDE8F88F97FAA7F0B0FA08
:1020500080F040F02000400901D0286800E0686A64
:1020600097FAA7F1B1FA81F101F01F0106FA01F127
:102070000842E2D10020E6E70120E4E710B50400C1
:1020800011D0022084F851002068016821F040013D
:102090000160204600F04EF80020606584F8510091
:1020A00084F8500010BD012010BD000010B50400E0
:1020B00003D094F8510010B104E0012010BD204677
:1020C00000F058F8022084F851002068016821F0DF
:1020D00040010160D4E901010843D4E9031211432E
:1020E000084361690843218B01F400710843E169E9
:1020F0000843216A0843A16A084321680860A0696F
:10210000042101EA1040616A08432168486021689F
:10211000E06A08612068C16921F40061C161044975
:10212000002008706065012084F85100002010BD77
:10213000BC0000200B4B01680B4A0C48994205D1AA
:10214000916921F480519161382108E0084B99424E
:1021500007D1D16921F48041D1614FF42041FEF7CC
:102160002BBF70470030014000100240000C0140BE
:102170000038004030B51E4D01681E4A022303247A
:102180001D4885B0A9421FD1916941F480519161E8
:102190009169039401F4805104912821CDE9001341
:1021A00069460446FEF77AFF102100910021019153
:1021B000029169462046FEF771FF1048416841F0E0
:1021C0000101416005B030BD0D4DA942FAD1D16980
:1021D00041F48041D161D169039401F480410491BB
:1021E0004FF42041CDE900136946FEF757FFE9E7B8
:1021F0000030014000100240000C0140000001408E
:10220000003800402DE9F84F00259A460446ADF805
:10221000005090F8510001287ED1E9B3E2B394F860
:102220005000012878D0012784F85070222084F8CB
:1022300051006565A163A287E287A564E564256313
:10224000A586E586A0684FF40049484504D120687A
:10225000036823F480430360A06A4FF40056B04241
:1022600009D12068036823F40053036020680368E1
:1022700043F40053036060684FF48278404501D115
:10228000A06878B120680168490603D4016841F06C
:1022900040010160E06800E001E0E8B131E00120C8
:1022A000BDE8F88F84F8505013460A462046CDF812
:1022B00000A000F040F9F3E7534600220121204638
:1022C00001F018FE48BB2068C168A06B421CA263E5
:1022D0000170E08F401EE087E08F0128ECD813E00A
:1022E000534600220121204601F004FEA8B92068CF
:1022F000C068A16B0880A06B801CA063E08F401EAB
:10230000E087E08F0128EBD8A06AB04207D12068AF
:10231000016841F4805101E068E007E00160534644
:1023200000220121204601F0E5FD08B10320B7E7B6
:10233000E0680028206817D0C068A16B0880A06BF7
:10234000801CA063E08F401EE087A06AB04217D1D6
:10235000534600220121204601F0CCFD50B1606DB2
:1023600040F002006065E1E7C168A06B421CA26317
:102370000170E7E72068C068ADF80000BDF8000014
:10238000606840450AD1A068484502D0B0F5806F2A
:1023900004D12068016821F04001016084F8517087
:1023A000A06AB0420DD120688068C043C00608D43E
:1023B000204601F09DFD012807D021686FF0100034
:1023C000886084F8505000206AE7606D40F0020099
:1023D00060652068016821F400510160206801688F
:1023E00041F40051016084F8505058E7022057E74B
:1023F0002DE9F843044690F851009846012870D121
:1024000039B332B394F8500001286AD0012784F818
:102410005070122084F85100002666652163A28660
:10242000E286E664A664A663A687E687A06A7D03C3
:10243000A84209D12068016821F400510160206898
:10244000016841F400510160A068B0F5004F03D06D
:1024500007E00120BDE8F8832068016841F480416D
:10246000016020680168490603D4016841F0400119
:102470000160E0680028606804D0D8B1E08E0128CF
:1024800018D021E010B1E08E012808D1206B411C4A
:10249000216321680078C860E08E401EE086000459
:1024A000000C1FD0434600220221204601F022FDED
:1024B000A8B9EBE7206B21680088C860206B801CFE
:1024C0002063E08E401EE0860004000C0AD04346E4
:1024D00000220221204601F00DFD0028EAD0032051
:1024E000B8E726E0A06AA84204D12068016841F458
:1024F00080510160434600220221204601F0FAFC8F
:1025000030B9434601228021204601F0F3FC20B17E
:10251000606D40F010006065E1E7A06818B92068C0
:10252000C1688068009084F8517084F85060002081
:1025300090E702208EE72DE9F8430026DDF82080A1
:102540000446ADF8006090F85100012803D094F8DB
:10255000510022287DD169B162B15BB194F850007D
:10256000012876D0012784F8507094F85100012892
:1025700003D005E00120BDE8F883322084F8510043
:102580006665A263A387E3872163A386E386A664C7
:10259000E664A06A4FF40055A84209D1206801689A
:1025A00021F4005101602068016841F4005101608C
:1025B00020680168490603D4016841F040010160C8
:1025C000E0684FF48271B0F5006F606807D00028B2
:1025D00067D088426ED1E08E012862D06AE020B1D7
:1025E00088420CD1E08E012809D1206B2168008837
:1025F000C860206B801C2063E08E401EE086E08E69
:1026000080B9A06AA84244D12068016841F4805191
:1026100001603EE02068C068A16B0880A06B801C50
:10262000A0639EE0434600220221204601F062FCA6
:10263000002874D1206B21680088C860206B801C42
:102640002063E08E401E0004000CE08609D1A06AE1
:1026500000E0C7E0A84204D12068016841F480513D
:102660000160434600220121204601F043FC00287E
:102670006FD12068C068A16B0880A06B801CA0632C
:10268000E08F401EE087E08E0028CBD160680028F4
:102690006AD1434600220121204601F02BFCF0BB09
:1026A000B8E7206B411C216321680078C860E08E88
:1026B000401EE086E08E98B9A06AA84204D1206846
:1026C000016841F480510160434600220121204607
:1026D00001F010FC18BB2068C068A16B087040E0D6
:1026E000434600220221204601F004FCB8B9206BC9
:1026F000411C216321680078C860E08E401E000400
:10270000000CE08607D1A06AA84204D120680168C5
:1027100041F48051016000224346012100E018E0AD
:10272000204601F0E7FBA0B92068C168A06B421CFD
:10273000A2630170E08F401EE087E08E0028CFD1B9
:10274000606888B9434600220121204601F0D2FB8F
:1027500008B103200FE72068C168A06B421CA26388
:102760000170E08F401EE087A06AA84210D1434666
:1027700000220121204601F0BDFB18B1606D40F040
:1027800002000FE02068C068ADF80000BDF800004E
:10279000434601228021204601F0ACFB20B1606D50
:1027A00040F010006065D4E784F85170A06AA84238
:1027B00014D120688168C943C9060FD4616D41F006
:1027C00002016165016821F400510160206801681F
:1027D00041F40051016084F85060CBE684F8506009
:1027E0000020C8E60220C6E64FF0E0210428086970
:1027F00003D020F004000861704740F00400FAE7BD
:10280000704710B5401EB0F1807F01D3012010BD8C
:102810004FF0E02460610F21601700F011FD0020EF
:10282000A06107202061002010BD10B5FFF7E8FF70
:1028300010BD70B5040018D0022084F8390020685B
:10284000C16821F40051C16020680025C56020687E
:10285000056120684561204600F0B2F8E56384F820
:10286000395084F83850002070BD012070BD704789
:1028700038B5016804460868CA68C0F3000002F46D
:10288000807238B132B1086848680090E06B40F05F
:102890000100E0630868C0F34002486900F00100ED
:1028A0003AB130B10A684A680092E26B42F0040221
:1028B000E2630A68C2F380023AB130B10A684A683A
:1028C0000092E26B42F00202E2630A68C2F3C002C5
:1028D0003AB130B1086848680090E06B40F00800F9
:1028E000E0630868C968C0F3401001F0200118B126
:1028F00011B1204601F07AFD20680168C068C1F37B
:10290000C01100F0800019B110B1204601F032FE74
:1029100021680868CA68C0F3801002F040020125EF
:1029200090B18AB1CA68204622F04002CA6094F889
:102930003910322911D001684A6922F001024A6136
:1029400080F8395000F095F9E06B002804D084F845
:1029500039502046FFF78BFF38BD222180F839100F
:10296000F0E770B5040004D094F83900002510B1E8
:1029700006E0012070BD84F83850204600F05AF877
:10298000022084F839002068C16821F40051C16038
:10299000204601F07FFD2068016921F4904101612A
:1029A0002068416921F02A0141612068C16841F431
:1029B0000051C160E563012084F83900002070BD3A
:1029C00010B5164B0168164A1648994208D191690C
:1029D00021F480419161C021FEF7EEFA252018E034
:1029E000114B994209D1D06920F40030D0610C21FB
:1029F0000E48FEF7E1FA26200BE00D4B99420CD170
:102A0000D16921F48021D1614FF44061FEF7D4FAFD
:102A10002720BDE81040FEF7C5BC10BD00380140BE
:102A200000100240000C014000440040000801403A
:102A30000048004070B53B4E016800243A4802222D
:102A400003233A4D86B0B14223D1816941F48041DC
:102A500081618069694600F4804004904020CDE99E
:102A6000000203932846FEF719FB8020CDE90004FD
:102A7000694628460294FEF711FB2D48416841F053
:102A800004014160002211462520FEF7A1FC25200B
:102A900021E0284EB14222D1C16941F40031C16127
:102AA000C069254D00F4003004900420CDE90002F7
:102AB000694603932846FEF7F1FA0820CDE90004A1
:102AC000694628460294FEF7E9FA002211462620BC
:102AD000FEF77EFC2620FEF770FC06B070BD174E98
:102AE000B142FAD1C16941F48021C161C06969462E
:102AF00000F4802004903015CDE9000203932846AD
:102B0000FEF7CCFAF014CDE9000469462846029499
:102B1000FEF7C4FA002211462720FEF759FC2720B1
:102B2000D9E700000038014000100240000C0140CD
:102B300000000140004400400008014000480040FF
:102B400090F83930012B01D0122B2BD131B32AB39D
:102B500090F83830012B25D0012380F8383081627D
:102B60008285C2850021C16390F83920122A17D0CE
:102B7000222280F8392080F838100168CA6842F4AF
:102B80008072CA6001684A6942F001024A610068C5
:102B9000C16841F02001C1600020704701207047EA
:102BA0003222E6E70220704770472DE9F0470446DD
:102BB00090F8390099460D46012801D0222856D1B7
:102BC00025B31AB394F83800012850D0012684F8B0
:102BD00038600027E76394F83900222819D01220C2
:102BE00084F83900A284E2844FF48058E08C4B468C
:102BF000401EE084A0684FF0000240454FF0800185
:102C0000204613D101F0E9FC08BB04E00120BDE837
:102C1000F0873220E4E728882168C0F30800486084
:102C2000206908B16D1C08E0AD1C06E001F0D5FC80
:102C300068B9216815F8010B4860E08C0028D5D1EF
:102C40004B4600224021204601F0C7FC08B103207A
:102C5000DDE794F83900322805D084F8396084F82B
:102C600038700020D3E7222084F83900F7E70220EB
:102C7000CDE770470D4A08B51178012813D021F02F
:102C800004001070C0B2C0438DF8000000224FF461
:102C900080410748FEF7EBFA0A23012269460548FE
:102CA000FFF7A6FB08BD41F00400EAE75000002052
:102CB000000C0140C40100200D4A08B5117801281C
:102CC00013D021F008001070C0B2C0438DF800008E
:102CD00000224FF480410748FEF7C9FA0A23012277
:102CE00069460548FFF784FB08BD41F00800EAE7A4
:102CF00050000020000C0140C40100200D4A08B51E
:102D00001178012813D021F010001070C0B2C04318
:102D10008DF8000000224FF480410748FEF7A7FA23
:102D20000A23012269460548FFF762FB08BD41F00E
:102D30001000EAE750000020000C0140C401002010
:102D40000D4A08B51178012813D021F02000107029
:102D5000C0B2C0438DF8000000224FF48041074804
:102D6000FEF785FA0A23012269460548FFF740FB72
:102D700008BD41F02000EAE750000020000C0140AF
:102D8000C40100200D4A08B51178012813D021F0A4
:102D900040001070C0B2C0438DF8000000224FF414
:102DA00080410748FEF763FA0A2301226946054875
:102DB000FFF71EFB08BD41F04000EAE7500000208D
:102DC000000C0140C40100200D4A08B5117801280B
:102DD00013D021F002001070C0B2C0438DF8000083
:102DE00000224FF480410748FEF741FA0A230122EE
:102DF00069460548FFF7FCFA08BD41F00200EAE722
:102E000050000020000C0140C40100203EB51C48C9
:102E10001A49002401608915C0E90214446105259E
:102E200005614FF460214460C161FDF7A3FE0720F6
:102E300000900120CDE9010469461148FDF770FDBD
:102E4000082000900220019069460D48FDF768FDBA
:102E5000062000900320019069460948FDF760FDB7
:102E60000420CDE9005069460548FDF759FD694643
:102E700003480195FDF754FD3EBD000000280140C8
:102E80002C01002070B5254886B0816941F0100101
:102E90008161816901F010010491816941F0200193
:102EA0008161816901F020010491816941F004018F
:102EB0008161816901F004010491816941F0080197
:102EC00081618069012500F0080004904FF46040A2
:102ED000CDE900050224694603941148FEF7DEF8A7
:102EE00049F61370CDE90005694603940D48FEF7D5
:102EF000D5F80020CDE900400B4E029069463046DF
:102F0000FEF7CCF845F20430CDE90005694603949C
:102F10003046FEF7C3F806B070BD00000010024056
:102F20000010014000080140000C01400C480B4912
:102F30004FF4007201604FF48271416000218160A2
:102F4000C1600161C0E905120822C0E907214162A0
:102F500081620A21C162FFF7A9B800000030014078
:102F60006C0100200C480B494FF4007201604FF4D3
:102F7000827141604FF4004181600021C1600161B4
:102F8000C0E90512C1610162416281620A21C16228
:102F9000FFF78CB800380040C40100200849074AF8
:102FA000C1E90020002088600C22C860C1E9040249
:102FB0008861C8610846FFF7D4BC000000380140B2
:102FC0001C0200200849074AC1E900200020121510
:102FD0008860C1E903020C22C1E90520C8610846E6
:102FE000FFF7BFBC004800409C02002070B50646B9
:102FF000001F88B0C4B24EA16846FDF7D4F84D4911
:103000008C2C06D0912C07D0962C08D09B2C09D064
:103010000BE091F84A0107E091F84C0104E091F8C7
:103020004E0101E091F85001C5B2361F4149F0B29E
:1030300001EB4006062D33D2DFE805F0320A030328
:103040000341B2783CA105A801F070FB05A947E057
:10305000F08839A1020AC5B205A801F067FB2A462B
:1030600035A106A801F062FB05A96846FDF76AF8DC
:1030700006A96846FDF766F830892FA1020AC5B295
:1030800005A801F053FB2A462BA106A801F04EFB30
:1030900005A96846FDF756F806A96846FDF752F8F7
:1030A00027A16846FDF74EF88C2C31D0912C33D0F7
:1030B000962C38D09B2C34D1694622482FE070885A
:1030C0001DA1020AC5B205A801F030FB2A461AA1CB
:1030D00006A801F02BFB05A96846FDF733F806A901
:1030E0006846FDF72FF8B08813A1020AC5B205A8FB
:1030F00001F01CFB2A4610A106A801F017FB05A948
:103100006846FDF71FF806A96846FDF71BF89FE71C
:103110000C486946963802E00A4869466438FDF76B
:1031200042F808B070BD074869463238F7E700003A
:103130002F3F00000A0C0020253032640000000000
:10314000210D0A00B4030020F0B5FDB06E2B39D27A
:103150008DF800008DF8011058008DF80200002055
:103160006D46194E09E0111805EB400436F81110B0
:103170000F0AE770401C217180B29842F3D90320F6
:1031800000EB430084B2E1B2284601F00DFD285562
:103190002919000A48700D4DA41CA4B20122042173
:1031A0002846FEF764F84FF0FF3322466946084888
:1031B000FFF7FBFC0A20FDF771FB002204212846E3
:1031C000FEF755F87DB0F0BD0A0C0020000C014060
:1031D0001C02002030B58FB08DF800008DF8011072
:1031E000100A8DF80200180A8DF804008DF80320EB
:1031F0008DF805300621684601F0D6FC8DF80600F2
:10320000000A0D4D8DF807000824012204212846EC
:10321000FEF72DF84FF0FF33224669460748FFF7C7
:10322000C4FC0A20FDF73AFB002204212846FEF7E1
:103230001EF80FB030BD0000000C01401C02002041
:103240000907090E002806DA00F00F0000F1E0205F
:1032500080F8141D704700F1E02080F800147047DA
:103260002DE9F04FDFF86092DFF858A2054699F893
:103270000E1000260AEB41008BB0B0F848010AF2AC
:103280003F22052873D091A1684601F04FFA00242F
:103290000DF11C0BE846474608EB0401022205A885
:1032A000FCF76EFFA01CC0B23918022206A8FCF77A
:1032B00067FF05A8FCF7A2FF074606A8FCF79EFFDC
:1032C000761CC1B2F6B238022BF816000843241D52
:1032D000E4B22BF81600142CDDD9681E00EB800038
:1032E00080001430C0B2BDF81E102AF810100AEB8E
:1032F0004006BDF820107180BDF82200B080BDF8F6
:103300002400F080BDF8260030815446724801F058
:10331000DBFB010C7181B0816F48283001F0D4FBD8
:10332000010CF18130826C48503001F0CDFB010C72
:103330007182B08299F80E004F4604EB4000B0F85D
:103340004801052806D06448783001F0BDFB010C27
:10335000F18230836048A03001F0EAFB70830120E5
:10336000FDF71EFEB878002418B128E0FFE75BA146
:103370008AE75948C83001F0DBFB6421B0FBF1F269
:10338000B0FBF1F15748B28320F81510A0F2EC40E1
:1033900030F815200C3000EB8500962A02D250F848
:1033A000041C08E04F4A103A02EB850252F8042C44
:1033B000511A40F8041C002901DA40F8044C464830
:1033C000F03001F0B5FB4849F08301EB850141F88D
:1033D000040C8DF80040002041460C54401CC0B243
:1033E0001428FAD3042241496846FCF7C9FE68460E
:1033F000FCF704FFA046384C3084503C94F86C0134
:103400008DF8140094F86D018DF8150094F86E0194
:103410008DF8180094F86F018DF8190005A804F5CF
:10342000B674FCF7EBFE074606A8FCF7E7FEC1B250
:1034300041EA0720708420798DF8140060798DF8B6
:103440001500A0798DF81800E0798DF8190005A80D
:10345000A4F5B674FCF7D2FE074606A8FCF7CEFE2C
:10346000C1B241EA0720B08400204246225421180C
:10347000401C81F8282081F8502081F8782081F8BC
:10348000A02081F8C82081F8F02081F8182181F867
:10349000402181F8682181F8902181F8B82181F8D4
:1034A000E02181F8082281F83022C0B281F8582248
:1034B0002828DBD304490120AC3148550BB0BDE8C6
:1034C000F08F00000A0C0020000000203030303067
:1034D0003030257300000000710E00203030303095
:1034E00025730000B8050020DC020020890F0020B1
:1034F0003EB54FF41650FFF751FD1E4C0122114608
:103500002046FDF7B4FE012202212046FDF7AFFE62
:103510004FF4FA70FDF744FDC0218DF80010002132
:103520008DF801108DF8021025208DF8030003207E
:103530008DF8040047208DF805004B1E06226946D1
:103540000D48FFF732FB6420FDF72AFD4FF496404B
:10355000FFF724FD002201212046FDF788FE00220E
:1035600002212046FDF783FE04499DF80400A1F8DE
:1035700056013EBD000801401C0200200A0C00203C
:103580002DE9F041272000F050FD9C4C24F8F00F6D
:10359000292000F04AFD60802B2000F046FDA0802D
:1035A0002D2000F042FDE0802F2000F03EFD208124
:1035B00001260027924DF03C02287CD06F7031200C
:1035C00000F033FD24F8FA0F332000F02EFD608068
:1035D000352000F02AFDA080372000F026FDE08095
:1035E000392000F022FD2081FA3C02287DD0AF7006
:1035F0003B2000F01AFDA4F804013D2004F582747C
:1036000000F013FD60803F2000F00FFDA0804120FE
:1036100000F00BFDE080432000F007FD2081A4F5C1
:10362000827402287ED0EF70452000F0FEFCA4F8E2
:103630000E01472004F5877400F0F7FC60804920F4
:1036400000F0F3FCA0804B2000F0EFFCE0804D2068
:1036500000F0EBFC2081A4F5877402287ED02F7146
:10366000812000F0E2FCA4F84A018320FE3400F03F
:10367000DCFCA4F84E00852000F0D7FCA4F8500034
:10368000872000F0D2FCA4F852004F2000F0CDFCBF
:103690006083512000F0C9FCA083532000F0C5FCDA
:1036A000E083552000F0C1FC2084572000F0BDFCD1
:1036B0006084592000E099E000F0B7FCA0845B2012
:1036C00000F0B3FCE0845D2000F0AFFC20855F20BB
:1036D00000F0ABFC6085612000F0A7FCA0856320B2
:1036E00000F0A3FCE085652000E081E000F09DFC97
:1036F0002086672000F099FC6086692000F095FC28
:10370000A0866B2000F091FCE0866D2000F08DFC1F
:1037100020876F2000F089FC6087712000F085FC15
:10372000A08700E066E0732000F07FFCE087752052
:1037300000F07BFCA4F84000012000F076FC24F8A7
:10374000340C032000F071FC24F8320C052000F04A
:103750006CFC24F8300C7B20294900E04CE0B139A6
:1037600008879020FFF742FC9520FFF73FFC9A2046
:10377000FFF73CFC9F20FFF739FCC82000F038FC25
:103780001F4D0F3D6870C92000F032FCA870CA20A0
:1037900000F02EFCE870CB2000F02AFC2871CC2031
:1037A00000F026FC463D2870CD2000F021FC68701A
:1037B000CE2000F01DFCA870CF2000F019FCE870AE
:1037C000D02000F015FC24F8F40CD12000F010FCFF
:1037D00024F8F20CD22000F00BFC24F8F00CD320DB
:1037E00000F006FC24F8EE0CBDE8F0816E70E6E611
:1037F000AE70FDE6EE7017E72E7131E70A0C00207F
:10380000B100002070B50D460646002403E002F02A
:10381000B7FC3055641CAC42F9D3012070BD0000E8
:103820002DE9F05F0C46FC4B01460126A3F1A205F1
:103830005A54DFF8E883DFF8E893934620466E7029
:1038400003F10F07012954D04FF4007A02297DD0EB
:1038500003297CD004294AD1FFF794FA3879A04291
:1038600044D05946CB2000F001FC002028723C7166
:1038700021464D2000F01BFCA8F816417003DFF82C
:10388000A4834700002C7CD0044601460122404618
:10389000FDF7EDFC002239464046FDF7E8FCC82064
:1038A000FDF77EFB012221464046FDF7E0FC0022A9
:1038B00039464046FDF7DBFCC820FDF771FB0122CD
:1038C00021464046FDF7D3FC002239464046FDF72D
:1038D000CEFCC820FDF764FB012221464046FDF7DF
:1038E000C6FC002239464046FDF7C1FCEE77BDE834
:1038F000F09FFFF7E1F97878A04246D05946C820FA
:1039000000F0B4FB7C70A8F8F84021462F2000F0AE
:10391000CEFB4FF480584FF400679CB30122414620
:103920004846FDF7A4FC002239464846FDF79FFCB7
:10393000C820FDF735FB012241464846FDF797FCBC
:10394000002239464846FDF792FC01E043E0BBE027
:10395000C820FDF725FB012241464846FDF787FCBC
:10396000002239464846FDF782FCC820FDF718FBC7
:10397000012241464846FDF77AFC00223946484676
:1039800001E019E103E0FDF772FC2E77AFE70022BA
:1039900041464C464846FDF76AFC0122394620461E
:1039A000FDF765FCC820FDF7FBFA002241462046E2
:1039B000FDF75DFC012239462046FDF758FCC82082
:1039C000FDF7EEFA002241462046FDF750FC0122A9
:1039D00039462046D4E7FFF791F9B878A0423FD0A6
:1039E0005946C92000F042FBBC702146392000F046
:1039F0005EFBA8F802414FF480679CB30122394670
:103A00004846FDF734FC0022544651464846FDF72F
:103A10002EFCC820FDF7C4FA012239464846FDF7BE
:103A200026FC002221464846FDF721FCC820FDF770
:103A3000B7FA012239464846FDF719FC0022214613
:103A40004846FDF714FCC820FDF7AAFA01223946C2
:103A50004846FDF70CFC002221464846FDF707FCCE
:103A60006E7744E7FFE7002239464C464846FDF7AB
:103A7000FEFB012251462046FDF7F9FBC820FDF769
:103A80008FFA002239462046FDF7F1FB012251460C
:103A90002046FDF7ECFBC820FDF782FA00223946EC
:103AA0002046FDF7E4FB012251462046FDF7DFFBEF
:103AB000C820FDF775FA002239462046FDF7D7FBEE
:103AC000012251462046C9E7FFF73AF9F878A042AB
:103AD00040D05946CA2000F0C9FAFC702146432064
:103AE00000F0E5FAA8F80C414F4F4FF480789CB3F2
:103AF000012241463846FDF7BAFB002254465146A2
:103B00003846FDF7B4FBC820FDF74AFA01224146CA
:103B10003846FDF7ACFB002221463846FDF7A7FBEF
:103B2000C820FDF73DFA012241463846FDF79FFBCC
:103B3000002221463846FDF79AFBC820FDF730FAEF
:103B4000012241463846FDF792FB002221463846C5
:103B5000FDF78DFBAE77CAE6FFE700224146384607
:103B6000FDF785FB012251463846FDF780FBC82052
:103B7000FDF716FA002241463846FDF778FB012290
:103B800051463846FDF773FBC820FDF709FA0022BD
:103B900041463846FDF76BFB012251463846FDF79A
:103BA00066FBC820FDF7FCF9002241463846FDF7C8
:103BB0005EFB01225146CAE7044601460022404608
:103BC000FDF755FB012239464046FDF750FBC82062
:103BD000FDF7E6F9002221464046FDF748FB0122A9
:103BE00039464046FDF743FBC820FDF7D9F90022CE
:103BF00021464046FDF73BFB012239464046FDF792
:103C000036FBC820FDF7CCF9002221464046FDF7DF
:103C10002EFB012266E60000A20000200A0C002014
:103C20000008014000100140000C014070B5AE4C8E
:103C30004620012124F8CA0F502060806420A08013
:103C400024F8261F40F6AC5060804FF49672A28094
:103C50009623E38021816181A081E28123826182B8
:103C6000A182E08222836383A183E1832084628432
:103C7000A384E18424F81E1C24F81C0C24F81A2CBC
:103C800024F8183C24F8161C042624F8126C27206B
:103C900000F00DFA6188292000F009FAA1882B2094
:103CA00000F005FAE1882D2000F001FA21892F208B
:103CB00000F0FDF96189312000F0F9F9A189332084
:103CC00000F0F5F9E189352000F0F1F9218A37207B
:103CD00000F0EDF9618A392000F0E9F9A18A3B2072
:103CE00000F0E5F9E18A3D2000F0E1F9218B3F2069
:103CF00000F0DDF9618B412000F0D9F9A18B432060
:103D000000F0D5F9E18B452000F0D1F9218C472056
:103D100000F0CDF9618C492000F0C9F9A18C4B204D
:103D200000F0C5F9E18C4D2000F0C1F9218D4F2044
:103D300000F0BDF9618D512000F0B9F9A18D53203B
:103D400000F0B5F9E18D552000F0B1F9218E572032
:103D500000F0ADF9618E592000F0A9F9A18E5B2029
:103D600000F0A5F9E18E5D2000F0A1F9218F5F2020
:103D700000F09DF9618F612000F099F9A18F632017
:103D800000F095F9E18F652000F091F9B4F840104A
:103D9000672000F08CF9B4F84210692000F087F930
:103DA000B4F844106B2000F082F9B4F846106D208E
:103DB00000F07DF9B4F848106F2000F078F9B4F8FD
:103DC0004A10712000F073F9B4F84C10732000F021
:103DD0006EF9B4F84E10752000F069F934F8261C1D
:103DE000012000F064F934F8241C032000F05FF98E
:103DF00034F8221C052000F05AF934F81E1C092062
:103E000000F055F934F81C1C0B2000F050F934F880
:103E10001A1C0D2000F04BF934F8181C0F2000F08C
:103E200046F934F8121C1520183400F040F900252A
:103E300025872946772000F03AF965870021792007
:103E400000F035F9A58700217B2000F030F9E587E7
:103E500000217D20183C00F02AF9244800214570FB
:103E60008570C57005714638057045708570C570E0
:103E700024F8E65C24F8E45C24F8E25DC820658060
:103E800000F015F90021C92000F011F90021CA2025
:103E900000F00DF90021CB2000F009F90021CC2021
:103EA00000F005F90021CD2000F001F90021CE201D
:103EB00000F0FDF80021CF2000F0F9F80021D0201B
:103EC00000F0F5F80021D12000F0F1F80021D22017
:103ED00000F0EDF80021D32000F0E9F80348A23803
:103EE0007B21C673018770BD0A0C0020A200002050
:103EF000012070472DE9F0471D4690460F460446C5
:103F0000FDF7BAF906465FEA08004FF000084FF4E3
:103F1000005A4FF0010926D034E0681C23D025B1A7
:103F2000FDF7AAF9801BA8421DD92068416821F03D
:103F3000E00141602068016821F040010160A06A51
:103F4000504509D12068016821F4005101602068C2
:103F5000016841F40051016084F8519084F8508068
:103F60000320BDE8F0872068806837EA0000D4D1DC
:103F70000DE0681C06D0002DD7D0FDF77DF9801B21
:103F8000A842D2D82068806837EA0000F1D000202B
:103F9000E7E7000001B582B00A200090012301AAE2
:103FA00002A90348FEF7C7FA9DF804000EBD000001
:103FB0006C01002070B50D460646002403E0305D1C
:103FC00002F0EAF8641CAC42F9D3012070BD000095
:103FD00010B5064B4FF4004108B1012200E0002269
:103FE0001846FDF744F9012010BD0000000801400B
:103FF0000EB5002200920192E82201468DF80020C1
:104000000DF1010002F0ABF80020FFF7E1FF0821FD
:104010006846FFF7CFFF012102A8FFF7F3FB01205D
:10402000FFF7D6FF9DF808000EBD0EB500220092E6
:104030000192E82201468DF800200DF1010002F006
:104040008EF80020FFF7C4FF08216846FFF7B2FF93
:10405000022102A8FFF7D6FB0120FFF7B9FF9DF868
:10406000090001029DF8080008430EBD38B504465A
:104070008DF80010002301461A46532002F096F8EE
:104080004FF40471B4FBF1F001FB1040C0F5047370
:10409000012B00D901236A462146842002F086F8CC
:1040A00000231A462146832002F080F838BD2DE90E
:1040B000F8430646080A8DF801008DF800106F4697
:1040C00002254FF4047800231A463146532002F0AB
:1040D0006DF8B6FBF8F108FB1160C0F50474AC4252
:1040E00000D92C4623463A463146842002F05EF839
:1040F00000231A463146832002F058F8281B050495
:10410000264427442D0CDED1BDE8F8832DE9F0418B
:10411000FDF7E6F8FEF789FB6C4D01200024E96FFE
:10412000491CE967C82901DDEC672870A9780129D5
:1041300007D1A96F491CA967B1F5FA5F01DDAC672A
:10414000AC70B5F8481044F26822491C89B2A5F851
:104150004810914202D9A5F848402873697B02298A
:1041600008D1696F40F2A462491C6967914201D984
:104170006C6768736978012907D1A96F491CA96721
:10418000B1F57A7F01DDAC676C70B5F84E10491C53
:1041900089B2A5F84E10022902D3A5F84E406874E2
:1041A000B5F8461040F6B832491C89B2A5F8461059
:1041B000914202D3A5F846406872444B8033196897
:1041C000491C1960914201D91C60A872404A92F8BA
:1041D000681001290CD1B2F86610491C89B2A2F806
:1041E0006610322904D382F86840A2F866406876E7
:1041F000B5F84A10491C89B2A5F84A10022902D321
:10420000A5F84A40E874287F324F334E012811D177
:104210007088401C80B27080FA280BD974802C778B
:104220000022B9143846FDF722F80022F914384666
:10423000FDF71DF8687F4FF40078012812D1B0888F
:10424000401C80B2B080FA280CD9B4806C77002270
:104250004FF480613846FDF70AF80022414638469F
:10426000FDF705F8A87F012813D1F088401C80B223
:10427000F080FA280DD9194FF480AC7700224FF462
:1042800080713846FCF7F3FF002241463846FCF7C0
:10429000EEFFE87F012816D13089401C80B23081C2
:1042A000FA2810D93481EC770D4C00224FF40051DC
:1042B0002046FCF7DCFF2046BDE8F04100224FF429
:1042C0008041FCF7D4BFBDE8F08100000000002071
:1042D000A00B002000080140FE0D0020000C014052
:1042E0000010014030B593B00920012100904FF437
:1042F0008030002404910691CDE901040225CDE926
:1043000007504FF4E01009906846FDF78FFB052039
:10431000CDE90A050002CDE90C4002210AA80E945D
:10432000FDF7A6F9A80311900F950FA8FDF70CF95A
:10433000FDF7F2FA4FF47A71B0FBF1F0FEF761FA93
:104340000420FEF751FA00221146501EFDF740F8F6
:1043500013B030BD0D48016841F0010101604168B2
:104360000B4A1140416001680A4A1140016001682E
:1043700021F480210160416821F4FE0141604FF485
:104380001F0181600449C0030860704700100240AB
:104390000000FFF8FFFFF6FE08ED00E0F8B501228F
:1043A000104E0446150329463046FCF760FF2820CE
:1043B000FCF7F6FD4FF0FF3708E08DF800003B46B4
:1043C000012269460848641CFEF7EFFB20780028AC
:1043D000F3D12820FCF7E4FD002229463046FCF703
:1043E00046FFF8BD000C01409C02002010B590F87B
:1043F0003910222903D0322901D0022010BD816852
:10440000B1F5805F11D00169002901681FD04968AA
:1044100001F07F03816A4A1C82620B70C18D491EC4
:104420000904090CC18518D02FE00269816A002AAD
:104430000268526805D0D2B20A80816A491C816242
:10444000ECE7C2F308020A80816A891CF7E74A6830
:10445000816A4B1C83620A70E0E70168CA6822F037
:104460002002CA6090F83910322910D00168CA6859
:1044700022F48072CA6001684A6922F001024A612E
:10448000012180F83910FEF78FFB002010BD1221AA
:10449000F7E700002DE9F041044600680169E26891
:1044A00021F4405111430161A16820690143606911
:1044B00001432068C26841F20C639A430A43C26018
:1044C00020684169A26921F4407111434161284982
:1044D000206864254FF03208884218D1FDF74CFA65
:1044E00000EBC00101EB001061688900B0FBF1F046
:1044F000B0FBF5F6FDF740FA00EBC00101EB001050
:1045000061688900B0FBF1F7FDF736FA17E0FDF7B7
:104510001DFA00EBC00101EB001061688900B0FBDF
:10452000F1F0B0FBF5F6FDF711FA00EBC00101EB7D
:10453000001061688900B0FBF1F7FDF707FA00EBA6
:10454000C00101EB001061688900B0FBF1F0B0FB25
:10455000F5F06FF01801484307EB800108EB0110FC
:10456000B0FBF5F0216866F31F108860BDE8F081AC
:104570000038014090F83910122903D0322901D0B7
:10458000022070478168B1F5805F016A0BD04A1C38
:104590000262026809785160C18C491E0904090C45
:1045A000C1840ED017E009880268C1F30801516088
:1045B00001690029016A02D0491C0162ECE7891CEB
:1045C000FBE70168CA6822F08002CA600068C1681F
:1045D00041F04001C160002070472DE9F0471D46C1
:1045E00090460F460446FCF747FE06465FEA080081
:1045F0004FF000094FF0010808D030E0681C05D0EA
:1046000095B1FCF739FE801BA8420DD820680068E0
:1046100037EA0000F2D127E0681C20D025B1FCF772
:104620002BFE801BA8421AD92068C16821F08001A6
:10463000C1602068C16821F02001C1602068C168A4
:1046400021F48071C1602068416921F0010141615C
:1046500084F8398084F838900320BDE8F08720681A
:10466000006837EA0000D7D00020F6E710B50C4804
:10467000FEF7FEF80A48006841680A48B0F864206E
:104680008154B0F864200021642A01D3A0F864109A
:1046900030F8642F521C028041800121017110BD4D
:1046A0001C020020A00B002070B51C48006880068A
:1046B00028D51A48001D0068194B022600241A7DCF
:1046C00000F07F00012A07D01946164D498C022AB6
:1046D00008D0032A16D10FE0022801D11E755C8490
:1046E000DC750FE0DA7D4240DA756854491C598464
:1046F000032807D1187505E098756C54012058758A
:104700001E755C840848FEF7B3F8BDE870400449A4
:1047100001221A310448FEF713BA00000048004095
:1047200000000020C20500209C0200200FB4084BAE
:1047300010B504A902AA039800F020F8044602A9C3
:10474000002000F0BCF9204610BC5DF814FB00000E
:10475000BF4A000800487047C800002002E008C8AF
:10476000121F08C1002AFAD170477047002001E0EB
:1047700001C1121F002AFBD1704700002DE9FF4F35
:104780008BB088460546002606E025280BD0DDE9DB
:104790000D1290476D1C761C28780028F5D10FB0BB
:1047A0003046BDE8F08F0024A146A2460122AE4962
:1047B00000E0044315F8013F203B02FA03F00842F1
:1047C000F7D128782A2810D06FF02F022878A0F18E
:1047D0003001092915D809EB890102EB410144F0A8
:1047E000020400EB01096D1CF0E758F8041B5FEAB6
:1047F000010903D544F40054C9F1000944F002044E
:104800006D1C28782E2817D115F8010F44F00404E8
:104810002A280ED06FF02F022878A0F13001092944
:104820000AD80AEB8A0102EB410100EB010A6D1C78
:10483000F2E758F804AB6D1C28786C280FD006DC22
:104840004C2817D068280DD06A2814D104E07428A9
:1048500010D07A280FD10DE044F400140AE044F49B
:10486000801401E044F440146978814202D104F5D7
:1048700080146D1C6D1C2878692865D006DC002822
:104880008DD0632827D0642806D15DE06E2808D03B
:1048900073282AD0752877D0DDE90D129047761C51
:1048A000E0E0C4F30250022809D003280DD0D8F864
:1048B000001004280DD00E6008F10408D2E0D8F8EA
:1048C0000010F217C1E90062F6E7D8F800100E8078
:1048D000F2E70E70F0E718F8041B8DF800100020C6
:1048E0008DF80100EB46012003E058F804BB4FF0BF
:1048F000FF3061074FF0000701D40AE07F1C5745E5
:104900000DDA8742FADB1BF807100029F6D106E022
:104910007F1C8742FCDB1BF807100029F8D1DDE97A
:104920000D23A9EB07008146214600F0B1F8304481
:10493000C61904E0DDE90D121BF8010B90477F1E3C
:10494000F8D22146484688E058F8040BC4F30251D7
:104950004FF00A0B032900D100B2042900D140B264
:10496000002802DA40422D2102E0210505D52B2145
:104970008DF82410012104E006E0E10710D0202189
:10498000F6E708AF089113E058F8040BC4F302519E
:104990004FF00A0B032900D180B2042900D1C0B224
:1049A0000021EEE75946FBF7B7FD303107F8011D4E
:1049B0000028F7D1ADEB070000F1200B600702D50E
:1049C00024F4803401E04FF0010ADA4502DDAAEB5D
:1049D0000B0000E00020824600EB0B010898014428
:1049E000A9EB01000A90E00306D4DDE90D2321467E
:1049F0000A9800F04DF806444FF0000908E009A9B4
:104A000011F80900DDE90D12904709F10109761C42
:104A100008998945F3DBE0030CD5DDE90D23214638
:104A20000A9800F035F8064404E0DDE90D12302064
:104A30009047761CBAF10001AAF1010AF5DC05E005
:104A4000DDE90D1217F8010B9047761CBBF1000150
:104A5000ABF1010BF4DC0A982146DDE90D2300F0EF
:104A600005F806446D1C97E6092801002DE9F04180
:104A7000044600251E461746880404D405E039463E
:104A80002020B0476D1C641EF9D52846BDE8F08192
:104A90002DE9F041044600251E469046C80301D585
:104AA000302700E02027880404D505E04146384639
:104AB000B0476D1C641EF9D52846BDE8F0810A6830
:104AC000531C0B601070704770B5064686B000200E
:104AD000009001900290039004900446694605906E
:104AE00004E02E2806D00855641CE4B2305D08B1FD
:104AF0000A2CF6D10846FBF781FB641CE1B205469F
:104B00000A4603AB06E08C1A185505EB85004500F4
:104B1000491CC9B2705C08B10A29F4D11846FBF7E8
:104B20006DFB2C180120FCF73BFA06B0204670BD47
:104B3000F0B587B0064600200090019002900390E7
:104B4000049005903046FBF727FB0025C7B22C46A2
:104B50000AE03119012206A8FBF712FB9DF81800A4
:104B60002E281FD0641CE4B2BC42F2D32A46314640
:104B70006846FBF705FB71193A4603A8491CFBF789
:104B8000FFFA6846FBF73AFB044603A8FBF736FB3F
:104B9000014604EBC40202EB041001EB800007B0F5
:104BA00080B2F0BD2546E1E770B503464FF6FF70D1
:104BB00000244AF201060FE01A785040002210F05B
:104BC000010F4FEA500000D07040521C92B2082AE8
:104BD000F5D3641CA4B25B1C8C42EDD370BD000005
:104BE00010B54DF23E311D48FCF7E6F941F6137160
:104BF0001B48FCF7E1F94FF460411A48FCF7DCF977
:104C00001948FDF716FE18488030FDF712FE1648C9
:104C10005838FDF733FA1548FBF736FF13483030A4
:104C2000FBF732FF1248816921F01001816181692F
:104C300021F020018161816921F008018161816990
:104C400021F004018161FCF745FEFCF799F94FF072
:104C5000E020002101614161816110BD000C014033
:104C600000080140001001401C020020FC00002050
:104C700000100240FF4C8EB04FF0020A84F818A0DA
:104C80000027FCF735FBFFF72DFBFEF7FBF8FFF7DE
:104C900029FBFA484FF000094FF0010BC0F80890CB
:104CA000C0F80C90C0F81490F349C0F810B0C0E9F7
:104CB00000194FF460225D46C261FBF75BFF1020D4
:104CC00007268DE861006946EC48FBF729FEFEF7F0
:104CD0009DF8FEF72BF9FEF745F94FF49640FEF7E5
:104CE0005DF94FF49670FEF76DF9E448E4496030E1
:104CF0000425C0E9001540F67B418160FCF7C2FA4B
:104D0000012204F12801DF48FDF71AFFDD480122E6
:104D100004F11A018030FDF713FFDB484FF47A717C
:104D20000068B0FBF1F0401EB0F1807F09D24FF077
:104D3000E0214861D54AF02082F8140DC1F818909E
:104D40000E6100220421D248FCF791FA7B202087D3
:104D500026460122544686F814A01102CD48FCF7DD
:104D600086FA0020FDF786FF0020FEF72DF80020D0
:104D7000FDF7A2FF0020FDF7C1FF0020FDF7E0FFD7
:104D80000020FDF7FFFF0420F07386F80CB04FF40D
:104D900033705D46F086FEF7ABFBFEF7F1FBBE48D5
:104DA000DFF8D0A200F10A010C91491D0091491EC3
:104DB000A0F51672029102F128010B9128310A9197
:104DC0002831093009910190283102F1F000CDE934
:104DD00007012830069028300590783804900AF1B1
:104DE000A70AA030AAF14B0B0390A2490320B131CE
:104DF0003944AA4E487007EB870006EB4000B0F834
:104E0000F80000289B4800F1A2003844427807F1DE
:104E10000100C0B201D0012100E00021FEF700FD39
:104E20000120FCF7BDF87F1C042FDEDB93492439F9
:104E30000868A6F840014B68A6F842318A68A6F8CF
:104E40004421CF68A6F846716E2801DDC1F80090B4
:104E50006E2B01DDC1F804906E2A01DDC1F80890C7
:104E60006E2F03DD85492439C1F80C90DFF80482E8
:104E700098F80B0001287DD188F80B9088F806502F
:104E800098F80600421E02EB82027832D2B288F80D
:104E9000202036F81210012960D106EB420206EB01
:104EA00040019388B1F8E4109E46994208D939B17F
:104EB000704B88F807409D330AF800401D5441E0CC
:104EC000B2F806C0614507D231B16A4B88F8074095
:104ED0009D331D54032314E000EB800306EBC3074E
:104EE000BB8B962B1FD9FF8C962F0DD21789012FC4
:104EF00019D1604FA2373F5C022F14D088F80740C9
:104F000004230AF800301DE00DD91789012F0AD0BB
:104F1000584FA2373F5C022F05D088F8074005277D
:104F20000AF800700EE071450CD261450AD9962B43
:104F300008D9504B9D331B5C23B919B188F8075031
:104F40000AF80050AEF10803994207DCD288083213
:104F5000914203D347499D3101F80090401CC0B2F3
:104F6000414688F8060005288AD308460D74097E54
:104F7000374600E02DE07180A6F85411817BF18462
:104F8000C18EB1843B49A2314A7872838A78B28358
:104F9000CA78F283097931849AF801207A829AF8E2
:104FA0000220BA829AF80320FA829AF80410398310
:104FB00098F80700B88002213548FCF753F910B182
:104FC0003D81012200E000224FF400413448FCF70B
:104FD0004EF998F81000012866D188F81090012742
:104FE000781E00EB80007830C0B288F8200098F876
:104FF0001B20042A06D036F81010012905D00029FC
:1050000076D031E1F8B2022222E11A49B131C95D0C
:10501000012901D061B3B7E00BEB070111F8011CC6
:1050200039BB1AF80710022907D0032940D006EB34
:105030004000008902285CD016E1F8B2022200216B
:10504000FEF7EEFB98F8200007EB870206EB400026
:105050000A49048106EBC2022439A2F81C9001EB34
:10506000870188F8025041F8049C48460D491CE02D
:1050700059E091E00000002000240140FC000020E5
:10508000003000401C020020C00000200FE000E0C3
:10509000000C014000080140791000200A0C00209B
:1050A00000100140B8050020E2E021F817901AE056
:1050B000F8B202220021FEF7B3FB98F8200007EBBC
:1050C000870106EB400006EBC1010481A1F81C90AA
:1050D000FE49484601EB870141F8049CFC4921F850
:1050E000179088F8025006EB4701A1F8E4004BE066
:1050F000A0E0F8B201220021FEF792FB07EB870146
:1051000006EBC101A1F81C90F04901EB870141F8C1
:10511000049CEF4921F8179006EB470188F80250EC
:10512000A1F8E4902BE00BEB070111F8011C91BBF7
:105130001AF80710012909D107EB870206EBC20212
:10514000928B1AB1E34AD25D022A05D006EB4000E9
:105150000089012806D087E0F8B203220121FEF77A
:105160005FFB11E0DB48C05D03287DD0012901D041
:10517000042979D1F8B204220121FEF751FB002164
:1051800007F1CB00FEF772FFD2480F30C05D012857
:1051900002D000B168E02BE00BEB070010F8011C17
:1051A000012961D100F8014CF8B202220021FEF77A
:1051B00037FB98F82000022106EB4000048107F13C
:1051C000CB00FEF753FF07EB870106EBC101A1F807
:1051D0001C90BE4988F8025001EB870141F8049CFD
:1051E000BB4921F8179006EB4701A1F8E4903BE09A
:1051F0000BEB070010F8011C022935D198F820109C
:1052000006EB4101098901292ED11AF8071001295D
:105210002AD100F8019C06EB47000021A0F8089075
:1052200007F1CB00FEF722FF002107F1CF00FEF7C8
:105230001DFF14E0A7490F31C95D012901D049B113
:1052400012E006EB4000008902280DD1F8B20122DD
:10525000002107E006EB40000089012804D1F8B2E4
:1052600004220121FEF7DCFA7F1C052FFFF6B8AE01
:105270009848A238407C012842D1964FA23F7878C6
:10528000F0BB924987F8119087F8209054317879D3
:1052900008610846FBF76EFC8C485430FBF7F6FDBE
:1052A0008A480A215430FBF759FD20B98748543009
:1052B000FBF75CFC786685485430FBF747FE854871
:1052C000854BA23800F18001426E886843F82020A7
:1052D000401C8860642813D31868322803D2D3F89E
:1052E0008C01322874D3DFF8EC81A8F1A20888F889
:1052F0000390DFF8E0C188F80490ACF1220C00E0E4
:1053000083E098F8030098F8041053F8202053F82D
:105310002170BA4205D9CCF80C2043F8207043F82C
:105320002120491CC9B288F804106429EBD3401C21
:10533000C0B288F803006428DBD300210846C8F80F
:10534000689053F82020401C11440728F9DBCA0854
:10535000C8E91A2900215C2053F82070401C394408
:105360006328F9DBC808C8F86C00101AFBF78FF83F
:1053700000225A4BFBF717F8FBF7AFF8544A98F89E
:105380000510103A02EB8102504B42F8040C4F4AD0
:10539000A3F10C0302EB810252F8042C801A962828
:1053A00002DB23F8110001E023F8119001EB8100EA
:1053B00006EB4007B7F8EE70012F0AD14AB10BEBAC
:1053C000010212F8012C022A03D0404A0C3A01E0F3
:1053D0000FE03F4A06EB410706EBC00032F8112010
:1053E000A7F8E420394A0C3A32F81110C18488F841
:1053F0000B5038492239C1F8089080394879401C4F
:10540000C0B24871052800D34D71324FA23F3878A1
:1054100001280DD187F80090B7F84C10484659B1D3
:10542000A7F84C0001224FF480712D48FBF71FFFB5
:10543000787A012804D02DE0A7F84C500022F2E73A
:1054400087F80990FBF734FA224922390861708401
:10545000F580B6F8CE10814201DA042007E0B6F8F4
:10546000CC10814205DAF97E042902D00320F876B7
:105470000EE0B6F8CA10814204DAFA7E042A01D09E
:10548000FC7605E0814203DDF87E042800D0FD763D
:10549000F87EF0800F48A238807A012856D10D4F4F
:1054A0004846223FC7F8049000EB800206EB420119
:1054B000B1F8F030012B44D1DFF82880B1F8F210B8
:1054C00058F820308B4214D90EE00000D80000209C
:1054D000B8050020A200002018040020000016409B
:1054E00000080140DC0200201BF800C0BCF1000FE6
:1054F0000DD006EBC202B2F846208A4221D806EB54
:1055000040014A89EAB11BF80000C0B119E006EB7E
:10551000400248F820905189491C89B25181F84ACB
:10552000032915540DD30BF800500121CC30FEF7A0
:105530009DFD78680321D030FEF798FD01E0A1F8C9
:105540000A907868401C78600428ADD3EC48603835
:10555000007B012831D1EA4F0420603F87F80C908E
:10556000F873B87B401CC0B2B873042800D9BD736F
:10557000B87B06EB4000B0F8480106281DD2DFE8F2
:1055800000F01C03060622354FF496501DE04FF440
:105590001650FDF717FDB87B00EBC00101EB0011C1
:1055A000D84800EB4100FEF7F9FE3C7587F81790EC
:1055B000A7F822900120FDF707FCD1486038417B15
:1055C000012925D0E9E04FF49670FDF7FBFCB87B8C
:1055D00000EBC00101EB0011CA4800EB4100FEF7EF
:1055E000DDFE7C7340F2A4607865D6E04FF49670DF
:1055F000FDF7E8FCB87B00EBC00101EB0011C148EE
:1056000000EB4100FEF7CAFE7C734FF4AF60EBE79E
:1056100080F80D90817B804606EB4100B0F8480190
:10562000012804D0042814D005287DD12DE0B648E7
:10563000062134220170302141708270C1700D2129
:1056400001710A2141714F4680F80690FEF7A6FECF
:1056500014E0AD480621352201703021417082707E
:10566000C1700D2101710A2141714F4680F80690E9
:10567000FEF794FE4FF41650FDF7A4FC88F8144092
:1056800088F81770A8F8227084E09D4F3837785C4E
:105690004FF0060100289C4801704FF03001417026
:1056A00019D0342181703121C1700D2101710A217D
:1056B000417180F806909448FEF770FE4FF49650C2
:1056C000FDF780FC8E483830A0F19801897B405C62
:1056D000012803D057E034228270E5E740F26320CE
:1056E000FBF75EFC884F502028213D7078703120F8
:1056F000B870FC7039714FF0300887F8058087F872
:10570000068087F80780387287F8098087F80A8052
:10571000F87238737873B873F87338742920787412
:105720000320B874602000E037E0F87487F8149024
:105730003846FEF733FE4FF4A570FBF731FC3D70A1
:10574000522078703220B870FC703920387187F898
:1057500005803320B8714620F8712820387229203E
:1057600078720320B8721C20F87287F80C903846C3
:10577000FEF714FE62483830A0F19801897B44544A
:105780003220FBF70DFC5E486038047580F81790F6
:10579000A0F822900120FDF717FBDFF86481A8F143
:1057A000600898F81500012871D14F4688F81590C7
:1057B0000020FDF709FB55A15548C8F87070FAF7AD
:1057C000FBFC08F18001486101465248FAF7EBFC06
:1057D000A8F826707EE24F48FAF7E5FC4D494246AC
:1057E000A8F824709631908C0F54401C80B290849D
:1057F0001E28F8D398F80E0006EB4000B0F84801D8
:10580000062872D2DFE800F071035DEFEFEE42A1EF
:105810004048FAF7A3FC10B108220C9957E040A1C8
:105820003C48FAF79BFC10B109220C995EE03FA1BD
:105830003848FAF793FC10B109220199BBE03EA168
:105840003448FAF78BFC10B109220199C2E03DA15E
:105850003048FAF783FC10B109220199CBE03CA152
:105860002C48FAF77BFC10B104220199CBE03BA154
:105870002848FAF773FC10B106220199D2E03AA148
:105880002448FAF76BFC18B106220199D2E034E201
:1058900038A12048FAF762FC10B108220199D9E03A
:1058A00037A11C48FAF75AFC00281ED019480422D8
:1058B00096300199FAF764FC16499631A1F5AF705C
:1058C000CFE032A11348FAF749FCB8B907E0114814
:1058D0009630FAF755FC0F490B989631C1E02EA18E
:1058E0000C48FAF73BFC50B95EE0BCE00948963042
:1058F000FAF746FC07490A989631B2E0BBE0C8E0E7
:1059000060000020EC020020080E00200D0A0000BC
:10591000C2050020791000202E30302E30300000DB
:1059200030312E30382E30310000000030312E3032
:10593000382E30320000000030312E30382E303317
:105940000000000030332E30382E303000000000D0
:1059500031332E30372E30300000000033322E30FD
:10596000372E30300000000033312E30372E3030EB
:105970000000000030302E30392E303200000000A0
:1059800030302E30392E303100000000302E302ED5
:10599000302E323535000000312D303A312E382E80
:1059A000312E323535000000F9A1FD48FAF7D6FB5B
:1059B00048B102990922FA489630FAF7E1FBF84912
:1059C000099896314DE0F7A1F548FAF7C7FB58B1B1
:1059D00002990922F2489630FAF7D2FBF04908986A
:1059E00096313EE086E040E0F2A1ED48FAF7B6FBE2
:1059F000D0B302990922EA489630FAF7C1FBE84988
:105A0000049896312DE0E6489630FAF7B9FBE44960
:105A10000798963125E0EBA1E148FAF79FFBD8B350
:105A200000990622DE489630FAF7AAFBDC49069870
:105A3000963116E0DA489630FAF7A2FBD849059875
:105A400096310EE0E3A1D648FAF788FB00280AD089
:105A500002990E22D2489630FAF792FBD049039869
:105A60009631FAF7A0FB28E132E0AFF2E001CC4832
:105A7000FAF774FB10B10E22029928E7D9A1C848A1
:105A8000FAF76CFB28B9AFF2F001C548FAF766FBEC
:105A900018B10922009929E723E0D6A1C048FAF7F6
:105AA0005DFB20B9BAA1BE48FAF758FB10B1092234
:105AB000009980E7D3A1BA48FAF750FB28B9B9A1F9
:105AC000B748FAF74BFB00288ED00922009981E7EE
:105AD000D0A1B348FAF742FB00289CD004220099D9
