:020000040800F2
:10000000C013002001010008090100080B010008CD
:100010000D0100080F010008110100080000000098
:1000200000000000000000000000000013010008B4
:10003000150100080000000017010008B53B00088A
:100040001B0100081B0100081B0100081B01000820
:100050001B0100081B0100081B0100081B01000810
:100060001B0100081B0100081B0100081B01000800
:100070001B0100081B0100081B0100081B010008F0
:100080001B0100081B0100081B0100081B010008E0
:100090001B0100081B0100081B0100081B010008D0
:1000A0001B0100081B0100081B0100081B010008C0
:1000B0001B0100081B0100081B0100081B010008B0
:1000C0001B0100081B0100081B0100081B010008A0
:1000D0001B010008054100081B01000851410008F0
:1000E0001B0100081B0100081B010008DFF80CD0F1
:1000F00000F0EAFA0048004725470008C013002036
:100100000648804706480047FEE7FEE7FEE7FEE7B1
:10011000FEE7FEE7FEE7FEE7FEE7FEE7ED3D00084F
:10012000ED000008202A04DB203A21FA02F0002129
:10013000704721FA02F3D040C2F1200291400843F7
:1001400019467047421E12F8013F002BFBD111F8EF
:10015000013B02F8013B002BF9D1704730B5054651
:100160002A460B4612F8010B13F8014B08B1A042C6
:10017000F8D01CB1002802D06D1CF1E7284630BD34
:1001800010B5044604E00B7800F8013B03B1491CAC
:10019000521EF8D2204610BD421C10F8011B002947
:1001A000FBD1801A7047034611F8012B00F8012B90
:1001B000002AF9D11846704770B50F4D00B928686C
:1001C000002412E00A4602E09E4203D0521C13783B
:1001D000002BF9D1DAB2224305D02BB124B1002192
:1001E00000F8011B04E00446401C0678002EE9D10B
:1001F0002860204670BD0000A800002070B50646AB
:1002000003F0FCFF046805460A220021304600F096
:100210008EF92C6070BD2DE9FE4F804681EA030007
:10022000C00F0C46009021F0004123F00045B8EBD0
:100230000200A94105D24046214690461C460B4685
:10024000024623F00040104347D0270DC7F30A00B1
:10025000C3F30A510290401A019040286BDAC3F3AD
:10026000130040F4801B0098924620B10023D2EB8B
:10027000030A63EB0B0B01985946C0F1400250464C
:1002800000F034F906460D4650465946019A00F0F2
:100290003CF910EB08006141002487EA115284EA1E
:1002A000E7731A4340D0009A62B3019A012A4FEAD9
:1002B000075215DC001B61EB02014FF0004202EA1D
:1002C0000752CDE90042001C41F5801132462B4611
:1002D00000F0ABF903B0BDE8F08F40462146F9E7E6
:1002E000001B61EB0201001C41F5801300185B410B
:1002F0002018A2F5001747EB030140EAD570B619A4
:100300006D4111E06D084FEA360645EAC0754FEAC7
:100310000752001B61EB0201001C41F580114908E6
:100320004FEA30000019514132462B4603B0BDE878
:10033000F04F00F06BB90098012240000023D0EB91
:10034000020263EBE073009821464FEAE074B8EBD9
:10035000000061EB0401E9E783F000435BE781F013
:10036000004158E72DE9F04D81EA030404F0004B09
:1003700021F0004514464FF0000A23F0004150EAF6
:10038000050220D054EA01021DD0C5F30A570246E7
:10039000C5F31303C1F31300C1F30A5640F48015EB
:1003A00043F48013A7EB0608101BD64608F2FD386D
:1003B00073EB050002D308F1010801E092185B41DC
:1003C000B8F1000F03DA00200146BDE8F08D0020EF
:1003D0004FF48011064684460EE0171B73EB0507A9
:1003E00005D3121B63EB050306434CEA010C4908D5
:1003F0004FEA300092185B4150EA0107EDD152EA12
:10040000030012D082EA040083EA0501084305D004
:10041000101BAB4106D20122002306E000224FF060
:10042000004302E06FF0010253101AEB06004CEBA0
:10043000085110EB0A0041EB0B01BDE8F04D00F054
:10044000E5B896230022114600F0B2B80EB540F28E
:10045000334102910021CDE900110A460B4600F01C
:10046000E4F803B000BD20F00040C10DC0F3160059
:1004700040F400007F2901DA00207047962903DC50
:10048000C1F19601C8407047963988407047C1F362
:100490000A5210B5C1F3130140F2FF3341F4801149
:1004A0009A4201DA002010BD40F233439A42A2F290
:1004B000334203DC5242FFF735FE10BD904010BDC1
:1004C00030B50B46014600202022012409E021FA24
:1004D00002F59D4205D303FA02F5491B04FA02F521
:1004E0002844151EA2F10102F1DC30BD202A04DBF4
:1004F000203A00FA02F1002070479140C2F1200337
:1005000020FA03F3194390407047202A06DBCB17EB
:10051000203A41FA02F043EAE07306E041FA02F3BE
:10052000D040C2F1200291400843194670472DE99E
:10053000F04791460F4680460446002614F8015BBA
:100540002DB100F0D3F80068405DC007F6D12B2D27
:1005500002D02D2D18D0641E4A463946204600F0A0
:10056000C9F827B13968A14201D1C7F800807105E7
:100570004FF002040BD54042002803DD03F03EFE9D
:100580000460A007BDE8F08746F48066E4E7002831
:10059000F8DA03F033FE04606FF00040F2E7002960
:1005A000A8BF7047401C490008BF20F001007047F9
:1005B00010B4B0FA80FC00FA0CF050EA010404BF59
:1005C00010BC704749B1CCF1200421FA04F411FAAF
:1005D0000CF118BF012121430843A3EB0C01CB1DF3
:1005E0004FEA00614FEA102042BF002010BC704764
:1005F00000EBC35010440029A4BF10BC7047401C3E
:10060000490008BF20F0010010BC704710B5141E4F
:1006100073F1000408DA401C41F1000192185B41BB
:100620001A4301D120F0010010BD2DE9F04D924692
:100630009B4611B1B1FA81F202E0B0FA80F22032A9
:100640009046FFF753FF04460F4640EA0A0041EA8E
:100650000B0153465A46084313D0114653EA010092
:1006600019D0C8F140025046FFF75CFD05460E4622
:10067000504659464246FFF739FF084305D001204E
:1006800004E020463946BDE8F08D0020054346EAE7
:10069000E0762C4337430A986305E40AA0EB080090
:1006A0000022FD0A44EA47540A3002D500200146E0
:1006B000E9E7010510196941DDE9084500196941BB
:1006C000BDE8F04DA2E70000064C074D06E0E068EB
:1006D00040F0010394E8070098471034AC42F6D389
:1006E000FFF708FD205400084054000800487047F8
:1006F0001C5400082DE9F05F82460078002715465B
:100700008B460AF10104B946302801D09DB113E0AF
:1007100014F8010B0127782803D0582801D045B1DF
:100720000AE00DB1102D07D10027102514F8010B98
:1007300002E0082500E00A250026B0460EE005FB91
:10074000080005FB06F1012701EB10461FFA80F8AF
:10075000B6F5803F00D3B94614F8010B294600F0E6
:1007600018F80028EBDABBF1000F05D00FB1641EBA
:1007700000E05446CBF80040B9F1000F06D003F07A
:100780003DFD02210160C81EBDE8F09F48EA064019
:10079000FAE73A2800D2303820F02002412A01D36B
:1007A000A2F13700884201D34FF0FF30704770B597
:1007B000044600688168C943C9071BD1816821F0DC
:1007C0000101816000F054FD05460EE000F050FD8F
:1007D000401B022809D9A06A40F01000A062E06A1C
:1007E00040F00100E062012070BD20688068C043D5
:1007F000C007EBD0002070BDF8B500260446009677
:1008000000688168C943C90727D0816841F00101A8
:100810008160134813490068B0FBF1F000E0401E0E
:1008200000900028FBD100F023FD054610E000F009
:100830001FFD401B02280BD9A06A40F01000A062E7
:10084000E06A40F00100E06284F824600120F8BD15
:1008500020688068C043C007E9D10020F8BD0000CF
:10086000A400002040420F0041F2883203E0002142
:10087000491C9142FCD3401EF9D270471C4910B567
:1008800001200861084600F071F9194800F0FAFAF1
:100890004FF4FA71164800F05DFA08B1002010BD5F
:1008A000134800F05FF913498865114800F05AF9C0
:1008B000FFF7CCFD4FF066320F4BFFF753FD0022E0
:1008C0000E4BFFF74FFD0E4A0E4BFFF745FD0E4A4C
:1008D0000E4BFFF747FD00220D4BFFF79CFC00225B
:1008E0000C4BFFF73FFDBDE81040FFF7D0BD000007
:1008F000B00000200000002066660A4000FEAF4005
:10090000E17A14AE47E1F63F22FDF675E09C713FB7
:100910000000394000002440F8B50023009390F80F
:1009200024209E46012A1ED0012280F824204A68F5
:100930001F254FF47874072A17D20668776B94FA4C
:10094000A4FCBCFA8CFC521E02FB0CFC05FA0CF554
:10095000AF4394FAA4F4B4FA84F40D68624395406A
:100960002F4377632DE00220F8BD06680D2A14D2CC
:10097000376B94FAA4FCBCFA8CFCD21F02FB0CFC73
:1009800005FA0CF5AF4394FAA4F4B4FA84F40D68B4
:10099000624395402F43376313E0F76A94FAA4FC4F
:1009A000BCFA8CFC0D3A02FB0CFC05FA0CF5AF43CB
:1009B00094FAA4F4B4FA84F40D68624395402F438A
:1009C000F7620A683825072604680A2A14D3E768FC
:1009D00095FAA5FCBCFA8CFC0A3A02FB0CFC06FA60
:1009E0000CF6B74395FAA5F5B5FA85F58E686A4316
:1009F00096403743E76012E0276995FAA5FCBCFAF8
:100A00008CFC02FB0CFC06FA0CF6B74395FAA5F534
:100A1000B5FA85F58E686A439640374327610A68C0
:100A2000102A01D0112A20D1124C0268A24217D1FB
:100A30009468240219D4946844F40004946009680A
:100A4000102912D10C490D4A0968B1FBF2F101EBF2
:100A50008101490000E0491E00910029FBD104E01A
:100A6000816A41F020018162012380F824E0184668
:100A7000F8BD000000240140A400002040420F0007
:100A800070B504000BD0A06A40F00200A0622046BE
:100A9000FFF78DFE05004FF0000602D05AE001205E
:100AA00070BD21686FF01F000860206841682B4A04
:100AB0001140416020688168294A114081602068A6
:100AC000C16801F07F41C1602068016901F04041C7
:100AD0000161206841696FF30B0141612068816900
:100AE0006FF30B0181612068C1696FF30B01C16174
:100AF0002068016A6FF30B0101622068416A6FF39D
:100B00000B0141622068816A6FF30B0181622068EA
:100B1000C16A01F07F41C1622068C16A01F07F4172
:100B2000C1622068016B01F0404101632068416BA4
:100B300001F0404141632068816B6FF315018163CF
:100B40002068816B6FF315018163204600F0A6F8E1
:100B5000E662A66284F82460284670BD00003FFF6C
:100B6000F00601FF0068C06C704700002DE9F041FD
:100B700004004FF0000513D0A06A002628B9E662F1
:100B800084F82460204600F0AFF82046FFF70FFEFF
:100B9000A16AC90600D420B1A06A40F01000A0628A
:100BA00075E0A16A21F4885141F00201A1626268F6
:100BB000E169E3680A43022191FAA1F1B1FA81F1F6
:100BC00003FA01F10A43A1684FF48077B94208D0D3
:100BD000012906D00021D4F814C0BCF1010F02D0C5
:100BE0000AE03946F7E7CBB3A36A43F02003A362D8
:100BF000E36A43F00103E3622368D3F804C02CF4F2
:100C0000694C4CEA010CC3F804C021688B68DFF81A
:100C100084C003EA0C0313438B60A168B94208D176
:100C20004FF47001256991FAA1F1B1FA81F16D1EBD
:100C30008D402168CB6A23F470032B43CB6221687B
:100C40008968154B1940914217D1E662A16A21F0DB
:100C5000020141F00101A162BDE8F081FFE74FF41C
:100C6000604CA3699CFAACFCBCFA8CFC5B1E03FADA
:100C70000CF30B4343F40061BEE7A06A20F00200CE
:100C800040F01000A062E06A40F00100E062012044
:100C9000E2E70000FDF7E1FFFE0E1FFF10B5006860
:100CA0000C4A0D49904204D1886920F40070886193
:100CB00010BD0A4A9042FBD1886920F480608861A7
:100CC000E021074800F074F9BDE810400121054813
:100CD00000F06EB9002401400010024000280140DD
:100CE00000080140000C014010B50068144A154985
:100CF00086B0904209D1886940F4007088618869A3
:100D000000F40070049006B010BD0F4A9042FAD172
:100D1000886940F4806088618869032400F48060F9
:100D20000490E020CDE900046946084800F0B2F9DB
:100D30000120CDE900046946054800F0ABF9E2E77F
:100D4000002401400010024000280140000801403A
:100D5000000C01402DE9F8434FF000080D46044611
:100D6000CDF8008000F084FA064620688168C90545
:100D700008D5A06A40F02000A06284F824800120F9
:100D8000BDE8F8834168C90503D4C06A10F4700F48
:100D900025D0022000F05CFB37490968B1FBF0F771
:100DA00020680169354A11424FEA62024FEAA213F4
:100DB0001AD1C1684FEA621C11EA0C0F14D1016903
:100DC000114220D1C06818421DD114201EE0681CB9
:100DD00005D035B300F04CFA801BA84221D820681A
:100DE00000688007F3D529E00169114202D1C1688A
:100DF000194206D0026922490A4206D1C068084257
:100E000003D1542002E0292000E0FC204743009851
:100E100012E0681C0DD025B100F02AFA801BA84210
:100E200007D9A06A40F00400A06284F8248003205F
:100E3000A6E70098401C0090B842EAD321686FF002
:100E400012000860A06A40F40070A0622068806808
:100E5000C0F3424007280CD1E06850B9A06A20F4E2
:100E60008070A062A06AC00403D4A06A40F00100B0
:100E7000A062002084E70000A400002024499224FE
:100E80004992240070B5044690F8240001280DD042
:100E9000012084F824002046FFF7AEFC01004FF04B
:100EA000000205D084F82420084670BD022070BDE1
:100EB000A06A40F20123984340F48070A0621F4D65
:100EC00020681F4BA84218D11E6816F4702F14D04A
:100ED000A66A46F48016A6621E68760505D5A66A3F
:100EE00026F4005646F48056A662A66AF6040AD591
:100EF000E66A26F00606E66206E0A66A26F4801692
:100F0000A6624668E9E7E26284F824206FF00202F4
:100F1000026020688268C2F34242072A05D1A842D3
:100F200008D11A6812F4702F04D0826842F480123B
:100F30008260B9E7826842F4A002F9E70028014024
:100F40000424014010B5044690F82400012807D07D
:100F5000012084F824002046FFF729FC10B107E0A7
:100F6000022010BDA16A21F4885141F00101A16263
:100F7000002184F8241010BD064810B54FF0FF3151
:100F8000C16000220261C160C26000F0D0F900209F
:100F900010BD00000010024031B500F069F90446B0
:100FA00000F066F90099001B8842F9D338BD0000B3
:100FB0002DE9F04300220F27DFF8C09059E001230C
:100FC00093400B4054D0FF2B01D8054601E000F1BF
:100FD00004054FEA820401D9A4F12004D5F800C029
:100FE00007FA04F82CEA080C4FF0040808FA04F891
:100FF0004CEA080CC5F800C0C46824EA0304C460C5
:1010000022F003054D44AC684FEA827C4FEA1C7C19
:1010100007FA0CF606EA0408194CA04201D1002494
:101020000FE0184CA04201D101240AE0164CA04266
:1010300001D1022405E0154CA04201D1032400E0B7
:10104000042404FA0CF4444512D1AC68B443AC60F7
:101050000F4C25689D432560241D25689D43256010
:10106000241D25689D432560241D25689D4325601A
:10107000521C31FA02F3A2D1BDE8F0830000014016
:1010800000080140000C0140001001400014014024
:10109000000401402DE9F84FDFF8A091002309F189
:1010A000040A0AF1040B1C464FF00F080BF1040E62
:1010B00001270A68A7403A40BA4272D1DFF880C1DE
:1010C0004D68A5EB0C0665452BD00DDC032D34D007
:1010D00005DC35B3012D19D0022D2FD11BE0112DC8
:1010E00016D0122D2AD119E0B6F5881F19D006DCCA
:1010F000B6F5803F15D0B6F5801F1FD111E0B6F5CB
:10110000001F0ED0B6F5041F18D10AE0CB6815E019
:10111000CB681B1D12E0CB6808330FE0CB680C33A3
:101120000CE08B682BB1012B4FF0080303D0476113
:1011300004E0042302E0076100E00023FF2A01D855
:10114000064601E000F104064FEA840501D9A5F145
:101150002005376808FA05FC27EA0C0703FA05F5AD
:1011600047EA050737604D68ED0060D5354DAE693B
:1011700046F00106AE61AD6924F0030605F00105F5
:101180000095314D7719BE68A5072D0F08FA05FCAB
:1011900026EA0C06DFF8B4C0604503D14FF0000C1E
:1011A00017E044E0DFF8A8C0604502D14FF0010C21
:1011B0000FE0DFF8A0C0604502D14FF0020C08E05C
:1011C000DFF894C0604502D14FF0030C01E04FF00E
:1011D000040C0CFA05FC4CEA060CC7F808C04D6874
:1011E000D9F80060ED034D4601D5164300E0964363
:1011F0002E604D68DAF80060AD03554601D5164300
:1012000000E096432E604D68DBF80060ED025D461D
:1012100001D5164300E096432E604D68DEF800606D
:10122000AD02754601D5164300E096432E60641C5E
:10123000102CFFF43DAFBDE8F88F00000004014022
:1012400000001110001002400000014000080140A1
:10125000000C01400010014000140140806808406B
:1012600000D0012070470AB1016170470904FBE713
:1012700001480068704700009C00002010B5040081
:1012800008D02068C168C943C90705D1C068C043F8
:10129000800701D4012010BD607B20B9002020739D
:1012A000204600F018F802206073216845F255507E
:1012B000086020684168626821F0070111434160BD
:1012C00020688168A2686FF30B01114381600120DF
:1012D0006073002010BD704702480168491C01601E
:1012E000704700009C000020074810B5016841F0DD
:1012F00010010160032000F087F8002000F006F8DC
:1013000000F016F8002010BD0020024010B5044681
:1013100000F0FEFA4FF47A71B0FBF1F001F06DFAD3
:1013200000222146501E00F04FF8002010BD7047EB
:10133000184808B5816941F001018161806900F0B8
:1013400001000090032000F05FF8002211466FF0CA
:101350000B0000F039F8002211466FF00A0000F08F
:1013600033F8002211466FF0090000F02DF800223A
:101370001146101F00F028F800221146501E00F000
:1013800023F80548416821F0E06141F000714160B7
:1013900008BD0000001002400000014000F01F02E4
:1013A000012191404009800000F1E020C0F8801147
:1013B000704700F01F02012191404009800000F1B8
:1013C000E020C0F800117047F0B40E4B1B68C3F367
:1013D0000223C3F10704042C00D904241D1D072D8A
:1013E00001D2002300E0DB1E012606FA04F56D1E83
:1013F0000D409D409E40761E164045EA0601F0BC19
:1014000001F0E6BE0CED00E0064A00F007011068AE
:101410004FF6FF03184040EA0120034908431060DB
:10142000704700000CED00E00000FA05BFF34F8F9D
:1014300005480168054A01F4E06111430160BFF30A
:101440004F8F00BFFDE700000CED00E00400FA053F
:1014500010B5014632A086B01DC88DE81D0034A02D
:10146000344C006804900020012930D0022947D074
:1014700010292AD161682268D20126D54FF4701252
:1014800092FAA2F201F47010B2FA82F2D040C903CB
:101490001DF8000010D561684FF4003292FAA2F2F4
:1014A00001F40031B2FA82F2D14004AA515C224A1E
:1014B000B2FBF1F1484301E0204948436168490229
:1014C00003D440000321B0FBF1F006B010BD216A47
:1014D000C1F30122012A03D1890701D5D003F4E722
:1014E000022A05D1616A890702D549F64040ECE736
:1014F000032AEAD121688903E7D54FF22440E4E7C3
:1015000000F036FA61684FF4804292FAA2F201F4D8
:101510004041B2FA82F2D140491C4900D3E70000B1
:1015200002030405060708090A0B0C0D0E0F101024
:10153000010200000010024000127A0000093D0084
:101540002DE9F84304460078444EC00772D0F06994
:1015500040F08050F061F069414F00F08050009001
:10156000386840F480703860FFF782FE054604E07A
:10157000FFF77EFE401B642831D83868C005F7D5D8
:10158000306AA18800F4407001F44071884251D063
:10159000306A01273B0493FAA3F1B1FA81F18A0082
:1015A000304920F440700A44C2F8007493FAA3F35F
:1015B000B3FA83F301EB83010022C1F80024306207
:1015C000800731D5FFF754FE054641F288394FF0C8
:1015D000020807E0FFF74CFE411B494502D90320F2
:1015E000BDE8F88398FAA8F0B0FA80F040F0400027
:1015F0004146B7EB501F01D130680BE091FAA1F0E2
:10160000B0FA80F040F04000B1EB501F01D1306AD9
:1016100000E0706A98FAA8F1B1FA81F101F01F02B6
:1016200007FA02F10842D5D0306A616820F44070B0
:10163000084330622078800705D57068A16820F4DF
:101640004040084370602078C00605D57068E168A6
:1016500020F48000084370600020C1E700100240C1
:1016600000700040000042422DE9F047DFF854923C
:1016700004460F46D9F80000934D00F00701012001
:10168000430446064FF0020C41F28838B94274D246
:10169000D9F8002022F007023A43C9F80020D9F80F
:1016A000001001F00701B94268D12178890705D5FA
:1016B0006968A26821F0F001114369602178C907C7
:1016C0004FD0616801290BD0022917D09CFAACF2E7
:1016D000B2FA82F242F0200252091DD02A681CE0C0
:1016E00093FAA3F2B2FA82F242F02002520901D038
:1016F0002A6800E06A6A93FAA3F310E096FAA6F269
:10170000B2FA82F242F02002520901D02A6800E0C7
:101710006A6A96FAA6F302E06A6A9CFAACF3B3FA34
:1017200083F303F01F039840024227D0686820F03B
:10173000030008436860FFF79BFD064660680128C8
:1017400009D00228474612D01EE0FFF791FD801B0A
:10175000B84201D988E047466868C0F38100012893
:10176000F3D197E0FFF784FD801BB8427CD868680E
:10177000C0F381000228F5D18CE00AE088E0FFF791
:1017800077FD801BB8426FD8686810F00C0FF6D157
:1017900080E02178890705D56968A26821F0F00109
:1017A000114369602178C90765D0616801290BD0B0
:1017B000022917D09CFAACF2B2FA82F242F020026F
:1017C00052091DD02A681CE093FAA3F2B2FA82F201
:1017D00042F02002520901D02A6800E06A6A93FAB6
:1017E000A3F310E096FAA6F2B2FA82F242F02002D7
:1017F000520901D02A6800E06A6A96FAA6F302E06C
:101800006A6A9CFAACF3B3FA83F303F01F039840BF
:1018100002423DD0686820F0030008436860FFF78B
:1018200027FD06466068012807D0022810D01EE078
:10183000FFF71EFD811B414516D86868C0F3810083
:101840000128F5D117E0FFF713FD811B41450BD8A7
:101850006868C0F381000228F5D10CE004E0FFF7CE
:1018600007FD811B414502D90320BDE8F087686868
:1018700010F00C0FF3D1D9F8001021F00701394313
:10188000C9F80010D9F8000000F00700B84201D0F4
:101890000120EAE72078400705D56868E16820F470
:1018A000E060084368602078000706D56868216911
:1018B00020F4605040EAC10068600020FFF726FD78
:1018C0000020D2E700200240001002400E4810B570
:1018D000416821F00301416001680C4A1140016038
:1018E000016821F480210160002141600268F82430
:1018F00094FAA4F41023B4FA84F422F0F802A3407A
:101900001A430260816010BD00100240FFFFF6FE26
:1019100000B500F043F808494968F02292FAA2F2B3
:1019200001F0F001B2FA82F2D140044A515CC840A1
:101930000349086000BD0000001002408853000801
:10194000A400002000B5FFF7E3FF074949684FF402
:10195000E06292FAA2F201F4E061B2FA82F2D140BE
:10196000024A515CC84000BD001002408853000884
:1019700000B5FFF7CDFF074949684FF4605292FA6E
:10198000A2F201F46051B2FA82F2D140024A515CF3
:10199000C84000BD001002408853000810B519A0CF
:1019A00085B00FC88DE80F001AA01B4B006804908B
:1019B00059681A4801F00C02042A1DD0082A1BD1CC
:1019C0004FF4701494FAA4F401F47012B4FA84F48D
:1019D000E240C9031DF8022010D559684FF40033C6
:1019E00093FAA3F301F40031B3FA83F3D94004ABC3
:1019F000595CB0FBF1F0504305B010BD08485043AE
:101A0000FAE7000002030405060708090A0B0C0D9B
:101A10000E0F1010010200000010024000127A00A8
:101A200000093D002DE9F84F04460078FB4DC00742
:101A30004FF0010625D068687704C0F381000128C3
:101A400007D06868C0F3810002281BD16868C00312
:101A500018D597FAA7F0B0FA80F040F020004009BE
:101A600001D0286800E0686A97FAA7F1B1FA81F11D
:101A700001F01F0106FA01F1084202D06068002857
:101A800078D083E0286820F480302860286820F42B
:101A900080202860FFF7ECFB804641F2883905E0A2
:101AA000FFF7E6FBA0EB080149457CD897FAA7F0C1
:101AB000B0FA80F040F02000400901D0286800E032
:101AC000686A97FAA7F1B1FA81F101F01F0106FAED
:101AD00001F10842E4D16068B0F5803F0BD010B14D
:101AE000B0F5A02F11D0286820F480302860286835
:101AF00020F4802002E0286840F48030286060688C
:101B000020B3FFF7B5FB80460AE0286840F4802048
:101B10002860F0E7FFF7ACFBA0EB08014945C4D80B
:101B200097FAA7F0B0FA80F040F02000400901D009
:101B3000286800E0686A97FAA7F1B1FA81F101F02C
:101B40001F0106FA01F10842E4D01FE0FFF790FB05
:101B5000804605E0FFF78CFBA0EB08014945A4D8BF
:101B600097FAA7F0B0FA80F040F02000400902D0C8
:101B7000286801E0B2E0686A97FAA7F1B1FA81F14A
:101B800001F01F0106FA01F10842E3D12078DFF8E5
:101B9000909280074FF0000B4FF0020732D5686833
:101BA00010F00C0F00E08FE14FF0F80A07D06868E2
:101BB000C0F38100022826D16868C00323D497FAB5
:101BC000A7F0B0FA80F040F02000400901D028686A
:101BD00000E0686A97FAA7F1B1FA81F101F01F01FC
:101BE00006FA01F1084202D02069012876D128685E
:101BF0009AFAAAF26169B2FA82F220F0F8009140F2
:101C00000843286059E0206980B396FAA6F0B0FA3C
:101C100080F049F82060FFF72BFB804605E0FFF7D6
:101C200027FBA0EB0800642899D897FAA7F0B0FA30
:101C300080F040F02000400901D0286800E0686A88
:101C400097FAA7F1B1FA81F101F01F0106FA01F14B
:101C50000842E4D02868626920F0F8019AFAAAF0F4
:101C6000B0FA80F082401143296026E0FFE796FA3F
:101C7000A6F1B1FA81F149F821B0FFF7F9FA8246ED
:101C8000B04605E0FFF7F4FAA0EB0A006428CBD8D1
:101C900097FAA7F0B0FA80F040F02000400901D098
:101CA000286800E0686A97FAA7F1B1FA81F101F0BB
:101CB0001F0208FA02F10842E4D1207800076DD52E
:101CC000A069B8B396FAA6F0B0FA80F009EB8000EC
:101CD000C0F88064FFF7CCFA804606E0A8E1FFF781
:101CE000C7FAA0EB080064289ED897FAA7F0B0FACC
:101CF00080F040F06000B6EB501F01D128680BE087
:101D000097FAA7F0B0FA80F040F06000B7EB501FF0
:101D100001D1286A00E0686A97FAA7F1B1FA81F167
:101D200001F01F0106FA01F21042D8D00120FFF79E
:101D300033F933E0FFE796FAA6F1B1FA81F109EB46
:101D40008101C1F880B4FFF793FA804605E0FFF700
:101D50008FFAA0EB0800642899D897FAA7F0B0FA98
:101D600080F040F06000B6EB501F01D128680BE016
:101D700097FAA7F0B0FA80F040F06000B7EB501F80
:101D800001D1286A00E0686A97FAA7F1B1FA81F1F7
:101D900001F01F0106FA01F21042D8D12078400765
:101DA00070D5E86940F08050E861E869DFF874A018
:101DB00000F080500090DAF8001041F48071CAF809
:101DC0000010FFF755FA804605E0FFF751FAA0EB47
:101DD0000800642878D8DAF80000C005F5D5286A2C
:101DE00020F001002862286A20F004002862FFF732
:101DF0003FFA804641F2883A05E0FFF739FAA0EB56
:101E00000801514560D897FAA7F0B0FA80F040F089
:101E10004000B6EB501F07D1286811E000100240C7
:101E2000000042420070004097FAA7F0B0FA80F03C
:101E300040F04000B7EB501F01D1286A00E0686A0B
:101E400097FAA7F1B1FA81F101F01F0106FA01F149
:101E50000842D2D1E06801280AD008B1052812D082
:101E6000286A20F001002862286A20F0040002E0BD
:101E7000286A40F001002862E06890B3FFF7F8F9A3
:101E800080460BE059E0286A40F004002862EFE742
:101E9000FFF7EEF9A0EB0801514515D897FAA7F026
:101EA000B0FA80F040F04000B6EB501F01D1286836
:101EB0000CE097FAA7F0B0FA80F040F04000B7EBE2
:101EC000501F02D1286A01E094E0686A97FAA7F1EE
:101ED000B1FA81F101F01F0206FA02F10842D7D0EF
:101EE0002BE0FFE7FFF7C4F9804605E0FFF7C0F9F4
:101EF000A0EB080151457DD897FAA7F0B0FA80F021
:101F000040F04000B6EB501F01D128680BE097FA73
:101F1000A7F0B0FA80F040F04000B7EB501F01D1BD
:101F2000286A00E0686A97FAA7F1B1FA81F101F036
:101F30001F0206FA02F10842D8D1E06990B369683D
:101F4000C1F38101022973D002284FF080714FF054
:101F5000007A58460AD091FAA1F1B1FA81F149F814
:101F60002100FFF785F9044657466AE08B4691FA4F
:101F7000A1F1B1FA81F149F82100FFF779F9B046F2
:101F80000746564604E0FFF773F9C01B642855D88E
:101F900096FAA6F0B0FA80F040F02000400902D096
:101FA000286801E062E0686A96FAA6F1B1FA81F168
:101FB00001F01F0208FA02F10842E4D1206AB0F5EC
:101FC000803F05D16868A16820F40030084368604C
:101FD000D4E908010843696821F474110843686072
:101FE0009BFAABF0B0FA80F0474649F82080FFF743
:101FF0003FF900E022E0044604E0FFF739F9001B56
:1020000064281BD896FAA6F0B0FA80F040F02000C1
:10201000400901D0286800E0686A96FAA6F1B1FA92
:1020200081F101F01F0107FA01F10842E5D01DE03E
:102030001EE0FFF71DF9001B642802D90320BDE84C
:10204000F88F97FAA7F0B0FA80F040F0200040092E
:1020500001D0286800E0686A97FAA7F1B1FA81F127
:1020600001F01F0106FA01F10842E2D10020E6E783
:102070000120E4E710B5040011D0022084F85100DB
:102080002068016821F040010160204600F04EF810
:102090000020606584F8510084F8500010BD0120D4
:1020A00010BD000010B5040003D094F8510010B129
:1020B00004E0012010BD204600F058F8022084F80A
:1020C00051002068016821F040010160D4E901015C
:1020D0000843D4E903121143084361690843218B83
:1020E00001F400710843E1690843216A0843A16AC9
:1020F000084321680860A069042101EA1040616A70
:102100000843216848602168E06A08612068C16965
:1021100021F40061C161044900200870606501205C
:1021200084F85100002010BDA00000200B4B016876
:102130000B4A0C48994205D1916921F48051916173
:10214000382108E0084B994207D1D16921F4804138
:10215000D1614FF42041FEF72BBF704700300140A2
:1021600000100240000C01400038004030B51E4D08
:1021700001681E4A022303241D4885B0A9421FD1CD
:10218000916941F4805191619169039401F4805106
:1021900004912821CDE9001369460446FEF77AFF31
:1021A0001021009100210191029169462046FEF71D
:1021B00071FF1048416841F00101416005B030BD38
:1021C0000D4DA942FAD1D16941F48041D161D16963
:1021D000039401F4804104914FF42041CDE90013B0
:1021E0006946FEF757FFE9E7003001400010024062
:1021F000000C014000000140003800402DE9F84F7C
:1022000000259A460446ADF8005090F85100012888
:102210007ED1E9B3E2B394F85000012878D00127C9
:1022200084F85070222084F851006565A163A2876C
:10223000E287A564E5642563A586E586A0684FF47A
:102240000049484504D12068036823F480430360B3
:10225000A06A4FF40056B04209D12068036823F405
:10226000005303602068036843F400530360606810
:102270004FF48278404501D1A06878B120680168A8
:10228000490603D4016841F040010160E06800E0C4
:1022900001E0E8B131E00120BDE8F88F84F850504A
:1022A00013460A462046CDF800A000F040F9F3E7B7
:1022B000534600220121204601F070FB48BB2068F4
:1022C000C168A06B421CA2630170E08F401EE087D2
:1022D000E08F0128ECD813E053460022012120466C
:1022E00001F05CFBA8B92068C068A16B0880A06BF6
:1022F000801CA063E08F401EE087E08F0128EBD8B0
:10230000A06AB04207D12068016841F4805101E021
:1023100068E007E00160534600220121204601F0F9
:102320003DFB08B10320B7E7E0680028206817D01C
:10233000C068A16B0880A06B801CA063E08F401E6A
:10234000E087A06AB04217D15346002201212046FF
:1023500001F024FB50B1606D40F002006065E1E7E0
:10236000C168A06B421CA2630170E7E72068C068E7
:10237000ADF80000BDF80000606840450AD1A068D3
:10238000484502D0B0F5806F04D12068016821F083
:102390004001016084F85170A06AB0420DD12068FC
:1023A0008068C043C00608D4204601F0F5FA012831
:1023B00007D021686FF01000886084F8505000202A
:1023C0006AE7606D40F0020060652068016821F4F2
:1023D000005101602068016841F40051016084F8F7
:1023E000505058E7022057E72DE9F843044690F88B
:1023F00051009846012870D139B332B394F8500097
:1024000001286AD0012784F85070122084F8510006
:10241000002666652163A286E286E664A664A6635A
:10242000A687E687A06A7D03A84209D120680168D3
:1024300021F4005101602068016841F400510160FD
:10244000A068B0F5004F03D007E00120BDE8F88395
:102450002068016841F480410160206801684906F4
:1024600003D4016841F040010160E0680028606821
:1024700004D0D8B1E08E012818D021E010B1E08E50
:10248000012808D1206B411C216321680078C860B5
:10249000E08E401EE0860004000C1FD04346002260
:1024A0000221204601F07AFAA8B9EBE7206B2168F7
:1024B0000088C860206B801C2063E08E401EE08690
:1024C0000004000C0AD0434600220221204601F0FD
:1024D00065FA0028EAD00320B8E726E0A06AA842FF
:1024E00004D12068016841F4805101604346002214
:1024F0000221204601F052FA30B9434601228021E0
:10250000204601F04BFA20B1606D40F0100060658C
:10251000E1E7A06818B92068C1688068009084F875
:10252000517084F85060002090E702208EE72DE97A
:10253000F8430026DDF820800446ADF8006090F8EE
:102540005100012803D094F8510022287DD169B1AF
:1025500062B15BB194F85000012876D0012784F86D
:10256000507094F85100012803D005E00120BDE827
:10257000F883322084F851006665A263A387E3875D
:102580002163A386E386A664E664A06A4FF400553F
:10259000A84209D12068016821F400510160206837
:1025A000016841F40051016020680168490603D4C4
:1025B000016841F040010160E0684FF48271B0F5BC
:1025C000006F606807D0002867D088426ED1E08E27
:1025D000012862D06AE020B188420CD1E08E012847
:1025E00009D1206B21680088C860206B801C2063A3
:1025F000E08E401EE086E08E80B9A06AA84244D1F9
:102600002068016841F4805101603EE02068C068A4
:10261000A16B0880A06B801CA0639EE04346002253
:102620000221204601F0BAF9002874D1206B2168FC
:102630000088C860206B801C2063E08E401E000470
:10264000000CE08609D1A06A00E0C7E0A84204D1EE
:102650002068016841F48051016043460022012155
:10266000204601F09BF900286FD12068C068A16B5B
:102670000880A06B801CA063E08F401EE087E08E86
:102680000028CBD1606800286AD14346002201218E
:10269000204601F083F9F0BBB8E7206B411C2163B1
:1026A00021680078C860E08E401EE086E08E98B910
:1026B000A06AA84204D12068016841F480510160F9
:1026C000434600220121204601F068F918BB20682A
:1026D000C068A16B087040E04346002202212046FA
:1026E00001F05CF9B8B9206B411C216321680078C6
:1026F000C860E08E401E0004000CE08607D1A06A8E
:10270000A84204D12068016841F480510160002290
:102710004346012100E018E0204601F03FF9A0B94E
:102720002068C168A06B421CA2630170E08F401E4C
:10273000E087E08E0028CFD1606888B94346002248
:102740000121204601F02AF908B103200FE7206893
:10275000C168A06B421CA2630170E08F401EE0873D
:10276000A06AA84210D1434600220121204601F070
:1027700015F918B1606D40F002000FE02068C068E4
:10278000ADF80000BDF8000043460122802120463C
:1027900001F004F920B1606D40F010006065D4E7ED
:1027A00084F85170A06AA84214D120688168C94396
:1027B000C9060FD4616D41F002016165016821F421
:1027C000005101602068016841F40051016084F803
:1027D0005060CBE684F850600020C8E60220C6E6D0
:1027E0004FF0E0210428086903D020F004000861BC
:1027F000704740F00400FAE7704710B5401EB0F192
:10280000807F01D3012010BD4FF0E02460610F21D3
:10281000601700F0DDFC0020A0610720206100208F
:1028200010BD10B5FFF7E8FF10BD70B5040018D05B
:10283000022084F839002068C16821F40051C16089
:1028400020680025C5602068056120684561204634
:1028500000F0B2F8E56384F8395084F8385000206D
:1028600070BD012070BD704738B501680446086826
:10287000CA68C0F3000002F4807238B132B108684F
:1028800048680090E06B40F00100E0630868C0F326
:102890004002486900F001003AB130B10A684A6864
:1028A0000092E26B42F00402E2630A68C2F3800223
:1028B0003AB130B10A684A680092E26B42F0020213
:1028C000E2630A68C2F3C0023AB130B108684868EE
:1028D0000090E06B40F00800E0630868C968C0F34E
:1028E000401001F0200118B111B1204601F0CAFAE0
:1028F00020680168C068C1F3C01100F0800019B100
:1029000010B1204601F082FB21680868CA68C0F354
:10291000801002F04002012590B18AB1CA682046B9
:1029200022F04002CA6094F83910322911D00168AF
:102930004A6922F001024A6180F8395000F095F9A5
:10294000E06B002804D084F839502046FFF78BFF55
:1029500038BD222180F83910F0E770B5040004D0AA
:1029600094F83900002510B106E0012070BD84F80C
:102970003850204600F05AF8022084F839002068C8
:10298000C16821F40051C160204601F0CFFA2068EF
:10299000016921F4904101612068416921F02A0117
:1029A00041612068C16841F40051C160E5630120C4
:1029B00084F83900002070BD10B5164B0168164A26
:1029C0001648994208D1916921F480419161C02152
:1029D000FEF7EEFA252018E0114B994209D1D06993
:1029E00020F40030D0610C210E48FEF7E1FA2620D9
:1029F0000BE00D4B99420CD1D16921F48021D161BA
:102A00004FF44061FEF7D4FA2720BDE81040FEF7EE
:102A1000C5BC10BD0038014000100240000C014050
:102A200000440040000801400048004070B53B4EA3
:102A3000016800243A48022203233A4D86B0B1428D
:102A400023D1816941F4804181618069694600F444
:102A5000804004904020CDE9000203932846FEF711
:102A600019FB8020CDE90004694628460294FEF750
:102A700011FB2D48416841F00401416000221146DC
:102A80002520FEF7A1FC252021E0284EB14222D1CD
:102A9000C16941F40031C161C069254D00F40030C5
:102AA00004900420CDE90002694603932846FEF70E
:102AB000F1FA0820CDE90004694628460294FEF7A1
:102AC000E9FA002211462620FEF77EFC2620FEF7BA
:102AD00070FC06B070BD174EB142FAD1C16941F425
:102AE0008021C161C069694600F4802004903015DE
:102AF000CDE9000203932846FEF7CCFAF014CDE9A5
:102B00000004694628460294FEF7C4FA00221146E2
:102B10002720FEF759FC2720D9E7000000380140A4
:102B200000100240000C0140000001400044004041
:102B3000000801400048004090F83930012B01D0D6
:102B4000122B2BD131B32AB390F83830012B25D07A
:102B5000012380F8383081628285C2850021C163FB
:102B600090F83920122A17D0222280F8392080F8D4
:102B700038100168CA6842F48072CA6001684A6904
:102B800042F001024A610068C16841F02001C16061
:102B900000207047012070473222E6E7022070478C
:102BA00070472DE9F047044690F8390099460D46E4
:102BB000012801D0222856D125B31AB394F8380041
:102BC000012850D0012684F838600027E76394F884
:102BD0003900222819D0122084F83900A284E28416
:102BE0004FF48058E08C4B46401EE084A0684FF0C4
:102BF000000240454FF08001204613D101F039FA20
:102C000008BB04E00120BDE8F0873220E4E7288813
:102C10002168C0F308004860206908B16D1C08E015
:102C2000AD1C06E001F025FA68B9216815F8010B22
:102C30004860E08C0028D5D14B4600224021204638
:102C400001F017FA08B10320DDE794F839003228C3
:102C500005D084F8396084F838700020D3E722204A
:102C600084F83900F7E70220CDE770470D4A08B530
:102C70001178012813D021F004001070C0B2C043B5
:102C80008DF8000000224FF480410748FEF7EBFA70
:102C90000A23012269460548FFF7A6FB08BD41F05B
:102CA0000400EAE756000020000C014078010020F3
:102CB0000D4A08B51178012813D021F008001070D2
:102CC000C0B2C0438DF8000000224FF48041074895
:102CD000FEF7C9FA0A23012269460548FFF784FB7B
:102CE00008BD41F00800EAE756000020000C014052
:102CF000780100200D4A08B51178012813D021F081
:102D000010001070C0B2C0438DF8000000224FF4D4
:102D100080410748FEF7A7FA0A23012269460548C1
:102D2000FFF762FB08BD41F01000EAE75600002003
:102D3000000C0140780100200D4A08B511780128E7
:102D400013D021F020001070C0B2C0438DF80000F5
:102D500000224FF480410748FEF785FA0A2301223A
:102D600069460548FFF740FB08BD41F02000EAE74F
:102D700056000020000C0140780100200D4A08B5E3
:102D80001178012813D021F040001070C0B2C04368
:102D90008DF8000000224FF480410748FEF763FAE7
:102DA0000A23012269460548FFF71EFB08BD41F0D2
:102DB0004000EAE756000020000C014078010020A6
:102DC0000D4A08B51178012813D021F002001070C7
:102DD000C0B2C0438DF8000000224FF48041074884
:102DE000FEF741FA0A23012269460548FFF7FCFA7B
:102DF00008BD41F00200EAE756000020000C014047
:102E0000780100203EB51C481A490024016089154C
:102E1000C0E902144461052505614FF46021446056
:102E2000C161FDF7A3FE072000900120CDE9010458
:102E300069461148FDF770FD0820009002200190BE
:102E400069460D48FDF768FD0620009003200190BB
:102E500069460948FDF760FD0420CDE90050694648
:102E60000548FDF759FD694603480195FDF754FDF6
:102E70003EBD000000280140E000002070B525485C
:102E800086B0816941F010018161816901F0100112
:102E90000491816941F020018161816901F0200183
:102EA0000491816941F004018161816901F00401AB
:102EB0000491816941F0080181618069012500F078
:102EC000080004904FF46040CDE9000502246946F3
:102ED00003941148FEF7DEF849F61370CDE90005BA
:102EE000694603940D48FEF7D5F80020CDE900406F
:102EF0000B4E029069463046FEF7CCF845F204309E
:102F0000CDE90005694603943046FEF7C3F806B0E4
:102F100070BD000000100240001001400008014098
:102F2000000C01400C480B494FF4007201604FF453
:102F30008271416000218160C1600161C0E90512B8
:102F40000822C0E90721416281620A21C162FFF7BC
:102F5000A9B8000000300140200100200C480B49B6
:102F60004FF4007201604FF4827141604FF40041F0
:102F700081600021C1600161C0E90512C161016287
:102F8000416281620A21C162FFF78CB800380040BB
:102F9000780100200849074AC1E900200020886024
:102FA0000C22C860C1E904028861C8610846FFF7C5
:102FB000D4BC000000380140D00100200849074A75
:102FC000C1E90020002012158860C1E903020C222B
:102FD000C1E90520C8610846FFF7BFBC00480040B2
:102FE0005002002070B5001F88B0C4B234A16846FA
:102FF000FDF7D9F8334834A100EB440505A8AA78B9
:1030000001F0E8F805A96846FDF79CF8A8882EA10C
:10301000020AC6B205A801F0DDF832462AA106A8C8
:1030200001F0D8F805A96846FDF78CF806A96846AE
:10303000FDF788F8E88824A1020AC6B205A801F0C5
:10304000C9F8324620A106A801F0C4F805A96846CF
:10305000FDF778F806A96846FDF774F828891AA1E3
:10306000020AC5B205A801F0B5F82A4616A106A8BD
:1030700001F0B0F805A96846FDF764F806A96846AE
:10308000FDF760F812A16846FDF75CF88C2C08D0BB
:10309000912C0AD0962C0FD09B2C0BD169460D4851
:1030A00006E00C486946963802E00A4869466438EA
:1030B000FDF779F808B070BD064869463238F7E781
:1030C0002F3F00002E0A002025303264000000004F
:1030D000210D0A0058030020F0B5FDB06E2B39D247
:1030E0008DF800008DF8011058008DF802000020C6
:1030F0006D46194E09E0111805EB400436F8111021
:103100000F0AE770401C217180B29842F3D9032066
:1031100000EB430084B2E1B2284601F09EFA285544
:103120002919000A48700D4DA41CA4B201220421E3
:103130002846FEF798F84FF0FF33224669460848C4
:10314000FFF72FFD0A20FDF78FFB00220421284600
:10315000FEF789F87DB0F0BD2E0A0020000C01407A
:10316000D001002030B58FB08DF800008DF801102F
:10317000100A8DF80200180A8DF804008DF803205B
:103180008DF805300621684601F067FA8DF80600D3
:10319000000A0D4D8DF8070008240122042128465D
:1031A000FEF761F84FF0FF33224669460748FFF704
:1031B000F8FC0A20FDF758FB002204212846FEF700
:1031C00052F80FB030BD0000000C0140D0010020CB
:1031D0000907090E002806DA00F00F0000F1E020D0
:1031E00080F8141D704700F1E02080F8001470474B
:1031F0002DE9F0438BB006460025654A65A1684677
:1032000000F0E8FF00240DF11C09E846474608EBF2
:103210000401022205A8FCF7B3FFA01CC0B23918B4
:10322000022206A8FCF7ACFF05A8FCF7E7FF07465B
:1032300006A8FCF7E3FF6D1CC1B2EDB2380229F815
:1032400015000843241DE4B229F81500142CDDD91B
:10325000701E00EB8000800014305149C0B2BDF8F0
:103260001E2021F8102001EB4004BDF820206280D0
:10327000BDF82200A080BDF82400E080BDF8260043
:10328000208101F5167001F073F900256581A08198
:103290003F48503001F06CF9E58120823C4878309D
:1032A00001F066F96582A0823948A03001F060F92A
:1032B000E58220833648C83001F093F9608301200D
:1032C000FDF76AFE3248F03001F08BF96421B0FB63
:1032D000F1F2B0FBF1F03349A28321F8160001F6B8
:1032E0009A1001F07EF9E083FDF7ABF82E4941F822
:1032F00026008DF80050002041460D54401CC0B2FD
:103300001428FAD3042229496846FCF739FF684695
:10331000FCF774FF208425498DF814508DF818505F
:103320000222491D05A8FCF72BFF20490222C91DD6
:1033300006A8FCF725FF05A8FCF760FF074606A8CE
:10334000FCF75CFFC1B241EA0720608417498DF8A1
:1033500014508DF818500222093105A8FCF710FF0F
:10336000124902220B3106A8FCF70AFF05A8FCF758
:1033700045FF054606A8FCF741FFC1B241EA05201A
:103380000B49A084012088550BB0BDE8F0830000F4
:103390005E0C0020303030303030257300000000EB
:1033A0002E0A0020DC030020A80F00209E0D002024
:1033B000870000203EB54FF41650FFF7EBFD1C4C84
:1033C000012211462046FDF74EFF01220221204630
:1033D000FDF749FF4FF4FA70FDF7DEFDC0218DF8CF
:1033E000001000218DF801108DF8021025208DF8B5
:1033F000030001208DF8040047208DF805004B1EC6
:10340000062269460B48FFF7CCFB6420FDF7C4FD9C
:103410004FF49640FFF7BEFD002201212046FDF744
:1034200022FF002202212046FDF71DFF3EBD0000C5
:1034300000080140D001002070B50B2000F049FBCE
:10344000664C674DA4F8DE00A8732720F03400F026
:1034500040FB2080292000F03CFB60802B2000F006
:1034600038FBA0802D2000F034FBE0802F2000F0FE
:1034700030FB2081312000F02CFB6081332000F0F4
:1034800028FBA081352000F024FBE081372000F0EC
:1034900020FB2082392000F01CFB60823B2000F0E2
:1034A00018FBA0823D2000F014FBE0823F2000F0DA
:1034B00010FB2083412000F00CFB6083432000F0D0
:1034C00008FBA083452000F004FBE083472000F0C8
:1034D00000FB2084492000F0FCFA60844B2000F0BF
:1034E000F8FAA0844D2000F0F4FAE0844F2000F0B8
:1034F000F0FA2085512000F0ECFA6085532000F0AE
:10350000E8FAA085552000F0E4FAE085572000F0A5
:10351000E0FA2086592000F0DCFA60865B2000F09B
:10352000D8FAA0865D2000F0D4FAE0865F2000F093
:10353000D0FA2087612000F0CCFA6087632000F089
:10354000C8FAA087652000F0C4FAE087672000F081
:10355000C0FAA4F84000692000F0BBFAA4F84200C9
:103560006B2000F0B6FAA4F844006D2000F0B1FA28
:10357000A4F846006F2000F0ACFAA4F848007120CF
:1035800000F0A7FAA4F84A00732000F0A2FAA4F809
:103590004C00752000F09DFAA4F84E00012000F0C8
:1035A00098FA24F8260C032000F093FA24F8240C4F
:1035B000052000F08EFA24F8220C7B2068879020EA
:1035C000FFF710FD9520FFF70DFD9A20FFF70AFD8C
:1035D000BDE870409F20FFF705BD00002E0A0020C7
:1035E0000000002070B50D460646002403E001F0FF
:1035F00089FE3055641CAC42F9D3012070BD000037
:103600002DE9F0410C4601464F4B01274F4E204615
:103610005A54A3F17805012910D04FF400780229FB
:1036200030D003294FD0042924D1FFF7A7FBE87934
:10363000A0426AD1287A012867D07CE0FFF738FBE6
:103640002879A04202D1287A012812D12C71214672
:103650002F2000F080FA4FF480514FF400685CB1E5
:1036600001223046FDF7FFFD002241463046FDF7BE
:10367000FAFDAF76BDE8F08100223046FDF7F3FD9C
:103680000122F2E7FFF736FB6879A04202D1287ADF
:10369000012810D16C712146392000F05CFA4FF4FA
:1036A000806154B101223046FDF7DDFD0022414624
:1036B0003046FDF7D8FDEF76DCE700223046FDF717
:1036C000D2FD0122F3E7FFF737FBA879A04202D130
:1036D000287A012811D1AC712146432000F03BFA31
:1036E0001B4E4FF4807154B101223046FDF7BBFDF3
:1036F000002241463046FDF7B6FD2F77BAE700229B
:103700003046FDF7B0FD0122F3E700202872EC718E
:1037100021464D2000F01FFA0E4E4FF400514FF499
:10372000804854B101223046FDF79DFD00224146FC
:103730003046FDF798FD6F779CE700223046FDF795
:1037400092FD0122F3E7000078000020000801400C
:10375000000C01400010014070B58D4C4620012145
:1037600024F8CA0F502060806420A08024F8261F0F
:1037700040F6AC5060804FF49672A2809623E380AE
:1037800021816181A081E28123826182A182E08224
:1037900022836383A183E18320846284A384E18400
:1037A00024F81E1C24F81C0C24F81A2C24F8183CAD
:1037B00024F8161C042624F8126C272000F0CBF9FC
:1037C0006188292000F0C7F9A1882B2000F0C3F9F7
:1037D000E1882D2000F0BFF921892F2000F0BBF9EE
:1037E0006189312000F0B7F9A189332000F0B3F9E5
:1037F000E189352000F0AFF9218A372000F0ABF9DC
:10380000618A392000F0A7F9A18A3B2000F0A3F9D2
:10381000E18A3D2000F09FF9218B3F2000F09BF9C9
:10382000618B412000F097F9A18B432000F093F9C0
:10383000E18B452000F08FF9218C472000F08BF9B7
:10384000618C492000F087F9A18C4B2000F083F9AE
:10385000E18C4D2000F07FF9218D4F2000F07BF9A5
:10386000618D512000F077F9A18D532000F073F99C
:10387000E18D552000F06FF9218E572000F06BF993
:10388000618E592000F067F9A18E5B2000F063F98A
:10389000E18E5D2000F05FF9218F5F2000F05BF981
:1038A000618F612000F057F9A18F632000F053F978
:1038B000E18F652000F04FF9B4F84010672000F068
:1038C0004AF9B4F84210692000F045F9B4F8441000
:1038D0006B2000F040F9B4F846106D2000F03BF981
:1038E000B4F848106F2000F036F9B4F84A1071208F
:1038F00000F031F9B4F84C10732000F02CF9B4F852
:103900004E10752000F027F934F8261C012000F035
:1039100022F934F8241C032000F01DF934F8221C8D
:10392000052000F018F934F81E1C092000F013F9E6
:1039300034F81C1C0B2000F00EF934F81A1C0D2072
:1039400000F009F934F8181C0F2000F004F934F8DD
:10395000121C1520183400F0FEF800252587294692
:10396000772000F0F8F865870021792000F0F3F85F
:10397000A58700217B2000F0EEF8E58700217D205F
:1039800000F0E9F803487B218673418770BD000091
:103990002E0A002000000020012070472DE9F0478A
:1039A0001D4690460F460446FDF762FC06465FEA58
:1039B00008004FF000084FF4005A4FF0010926D0DC
:1039C00034E0681C23D025B1FDF752FC801BA842CF
:1039D0001DD92068416821F0E0014160206801683C
:1039E00021F040010160A06A504509D120680168BA
:1039F00021F4005101602068016841F40051016028
:103A000084F8519084F850800320BDE8F087206846
:103A1000806837EA0000D4D10DE0681C06D0002D84
:103A2000D7D0FDF725FC801BA842D2D8206880683B
:103A300037EA0000F1D00020E7E7000001B582B0CE
:103A40000A200090012301AA02A90348FEF76FFD96
:103A50009DF804000EBD00002001002070B50D4649
:103A60000646002403E0305D01F058FC641CAC42C3
:103A7000F9D3012070BD000010B5064B4FF4004192
:103A800008B1012200E000221846FDF7ECFB0120FE
:103A900010BD0000000801400EB500220092019206
:103AA000E82201468DF800200DF1010001F019FC1B
:103AB0000020FFF7E1FF08216846FFF7CFFF012153
:103AC00002A8FFF78FFD0120FFF7D6FF9DF8080041
:103AD0000EBD0EB5002200920192E82201468DF83B
:103AE00000200DF1010001F0FCFB0020FFF7C4FFF6
:103AF00008216846FFF7B2FF022102A8FFF772FD16
:103B00000120FFF7B9FF9DF8090001029DF80800A8
:103B100008430EBD38B504468DF800100023014659
:103B20001A46532001F004FC4FF40471B4FBF1F089
:103B300001FB1040C0F50473012B00D901236A4634
:103B40002146842001F0F4FB00231A4621468320FD
:103B500001F0EEFB38BD2DE9F8430646080A8DF862
:103B600001008DF800106F4602254FF40478002301
:103B70001A463146532001F0DBFBB6FBF8F108FB97
:103B80001160C0F50474AC4200D92C4623463A4675
:103B90003146842001F0CCFB00231A4631468320B5
:103BA00001F0C6FB281B0504264427442D0CDED15A
:103BB000BDE8F8832DE9F041FDF78EFBFEF731FEFD
:103BC000684D01200024297B022908D1696E40F24A
:103BD000A462491C6966914201D96C662873298CDC
:103BE00041F28832491C89B22984914201D32C8444
:103BF0002872B5F85410491C89B2A5F85410FA2956
:103C000003D39621A5F85410E873B5F84C10491C5D
:103C100089B2A5F84C10642902D3A5F84C40A872CB
:103C2000B5F85210491C89B2A5F85210022902D3E6
:103C3000A5F852402874B5F84810491C89B2A5F877
:103C40004810B1F5967F02D3A5F848406872B5F8E0
:103C50004A1044F26822491C89B2A5F84A109142E0
:103C600002D9A5F84A40E8723F4A92F86810012943
:103C70000CD1B2F86610491C89B2A2F8661032293C
:103C800004D382F86840A2F86640E875B5F84E00A3
:103C9000401C80B2A5F84E00022801D3A5F84E4082
:103CA000A87E324F324E012811D17088401C80B25C
:103CB0007080FA280BD97480AC760022B91438468B
:103CC000FDF7D1FA0022F9143846FDF7CCFAE87E68
:103CD0004FF40078012812D1B088401C80B2B08027
:103CE000FA280CD9B480EC7600224FF48061384673
:103CF000FDF7B9FA002241463846FDF7B4FA287FAD
:103D0000012813D1F088401C80B2F080FA280DD928
:103D1000184FF4802C7700224FF480713846FDF75D
:103D2000A2FA002241463846FDF79DFA687F012835
:103D300016D13089401C80B23081FA2810D93481E4
:103D40006C770D4C00224FF400512046FDF78BFAA2
:103D50002046BDE8F04100224FF48041FDF783BAD0
:103D6000BDE8F08100000020C409002000080140E7
:103D7000220C0020000C01400010014030B593B02F
:103D80000920012100904FF4803000240491069115
:103D9000CDE901040225CDE907504FF4E010099068
:103DA0006846FDF73FFE0520CDE90A050002CDE992
:103DB0000C4002210AA80E94FDF756FCA8031190AE
:103DC0000F950FA8FDF7BCFBFDF7A2FD4FF47A712C
:103DD000B0FBF1F0FEF711FD0420FEF701FD00221B
:103DE0001146501EFDF7F0FA13B030BD0D480168C2
:103DF00041F00101016041680B4A114041600168D6
:103E00000A4A11400160016821F480210160416883
:103E100021F4FE0141604FF41F0181600449C00399
:103E200008607047001002400000FFF8FFFFF6FE38
:103E300008ED00E0F8B50122104E044615032946AE
:103E40003046FDF710FA2820FDF7A6F84FF0FF37AF
:103E500008E08DF800003B46012269460848641CD2
:103E6000FEF79FFE20780028F3D12820FDF794F874
:103E7000002229463046FDF7F6F9F8BD000C014056
:103E80005002002010B590F83910222903D03229B1
:103E900001D0022010BD8168B1F5805F11D00169A9
:103EA000002901681FD0496801F07F03816A4A1C1C
:103EB00082620B70C18D491E0904090CC18518D09E
:103EC0002FE00269816A002A0268526805D0D2B2E6
:103ED0000A80816A491C8162ECE7C2F308020A8009
:103EE000816A891CF7E74A68816A4B1C83620A7001
:103EF000E0E70168CA6822F02002CA6090F8391031
:103F0000322910D00168CA6822F48072CA60016840
:103F10004A6922F001024A61012180F83910FEF756
:103F20003FFE002010BD1221F7E700002DE9F0410F
:103F3000044600680169E26821F4405111430161BF
:103F4000A16820690143606901432068C26841F2A9
:103F50000C639A430A43C26020684169A26921F454
:103F60004071114341612849206864254FF03208AF
:103F7000884218D1FDF7FCFC00EBC00101EB0010FA
:103F800061688900B0FBF1F0B0FBF5F6FDF7F0FCDD
:103F900000EBC00101EB001061688900B0FBF1F794
:103FA000FDF7E6FC17E0FDF7CDFC00EBC00101EBEF
:103FB000001061688900B0FBF1F0B0FBF5F6FDF789
:103FC000C1FC00EBC00101EB001061688900B0FB8F
:103FD000F1F7FDF7B7FC00EBC00101EB00106168E1
:103FE0008900B0FBF1F0B0FBF5F06FF01801484329
:103FF00007EB800108EB0110B0FBF5F0216866F3D8
:104000001F108860BDE8F0810038014090F8391039
:10401000122903D0322901D0022070478168B1F5FE
:10402000805F016A0BD04A1C026202680978516005
:10403000C18C491E0904090CC1840ED017E00988FF
:104040000268C1F30801516001690029016A02D0C8
:10405000491C0162ECE7891CFBE70168CA6822F091
:104060008002CA600068C16841F04001C160002060
:1040700070472DE9F0471D4690460F460446FDF770
:10408000F7F806465FEA08004FF000094FF0010814
:1040900008D030E0681C05D095B1FDF7E9F8801B29
:1040A000A8420DD82068006837EA0000F2D127E066
:1040B000681C20D025B1FDF7DBF8801BA8421AD977
:1040C0002068C16821F08001C1602068C16821F0CA
:1040D0002001C1602068C16821F48071C16020683E
:1040E000416921F00101416184F8398084F83890F8
:1040F0000320BDE8F0872068006837EA0000D7D0C9
:104100000020F6E710B50F48FEF7AEFB0D4800683B
:1041100041680D48B0F864208154B0F86420002153
:10412000642A01D3A0F8641030F8642F521C028076
:104130004180012101710A46BDE810400349014850
:10414000FEF7FABCD0010020C4090020280000209E
:1041500070B51C480068800628D51A48001D006804
:10416000194B022600249A7C00F07F00012A07D018
:104170001946164D498C022A08D0032A16D10FE0A1
:10418000022801D19E745C845C750FE05A7D424028
:104190005A756854491C5984032807D1987405E05E
:1041A00018756C540120D8749E745C840848FEF71E
:1041B0005BFBBDE870400449012218310448FEF75A
:1041C000BBBC00000048004000000020E6030020C7
:1041D000500200200FB4084B10B504A902AA03989E
:1041E00000F020F8044602A9002000F0BCF92046A7
:1041F00010BC5DF814FB00006745000800487047DC
:10420000AC00002002E008C8121F08C1002AFAD141
:1042100070477047002001E001C1121F002AFBD146
:10422000704700002DE9FF4F8BB0884605460026F9
:1042300006E025280BD0DDE90D1290476D1C761C99
:1042400028780028F5D10FB03046BDE8F08F002463
:10425000A146A2460122AE4900E0044315F8013F01
:10426000203B02FA03F00842F7D128782A2810D020
:104270006FF02F022878A0F13001092915D809EB39
:10428000890102EB410144F0020400EB01096D1CBD
:10429000F0E758F8041B5FEA010903D544F4005421
:1042A000C9F1000944F002046D1C28782E2817D1AA
:1042B00015F8010F44F004042A280ED06FF02F02E5
:1042C0002878A0F1300109290AD80AEB8A0102EB0B
:1042D000410100EB010A6D1CF2E758F804AB6D1CBC
:1042E00028786C280FD006DC4C2817D068280DD011
:1042F0006A2814D104E0742810D07A280FD10DE078
:1043000044F400140AE044F4801401E044F440143E
:104310006978814202D104F580146D1C6D1C2878E7
:10432000692865D006DC00288DD0632827D0642852
:1043300006D15DE06E2808D073282AD0752877D082
:10434000DDE90D129047761CE0E0C4F3025002282C
:1043500009D003280DD0D8F8001004280DD00E6025
:1043600008F10408D2E0D8F80010F217C1E90062A1
:10437000F6E7D8F800100E80F2E70E70F0E718F8B4
:10438000041B8DF8001000208DF80100EB46012081
:1043900003E058F804BB4FF0FF3061074FF000070F
:1043A00001D40AE07F1C57450DDA8742FADB1BF87F
:1043B00007100029F6D106E07F1C8742FCDB1BF8C2
:1043C00007100029F8D1DDE90D23A9EB070081468C
:1043D000214600F0B1F83044C61904E0DDE90D12C1
:1043E0001BF8010B90477F1EF8D22146484688E013
:1043F00058F8040BC4F302514FF00A0B032900D103
:1044000000B2042900D140B2002802DA40422D2136
:1044100002E0210505D52B218DF82410012104E0AF
:1044200006E0E10710D02021F6E708AF089113E07D
:1044300058F8040BC4F302514FF00A0B032900D1C2
:1044400080B2042900D1C0B20021EEE75946FCF742
:1044500037F8303107F8011D0028F7D1ADEB070020
:1044600000F1200B600702D524F4803401E04FF006
:10447000010ADA4502DDAAEB0B0000E000208246CB
:1044800000EB0B0108980144A9EB01000A90E0033E
:1044900006D4DDE90D2321460A9800F04DF80644C4
:1044A0004FF0000908E009A911F80900DDE90D1233
:1044B000904709F10109761C08998945F3DBE0036F
:1044C0000CD5DDE90D2321460A9800F035F80644A5
:1044D00004E0DDE90D1230209047761CBAF10001AE
:1044E000AAF1010AF5DC05E0DDE90D1217F8010B70
:1044F0009047761CBBF10001ABF1010BF4DC0A988C
:104500002146DDE90D2300F005F806446D1C97E611
:10451000092801002DE9F041044600251E461746F2
:10452000880404D405E039462020B0476D1C641E81
:10453000F9D52846BDE8F0812DE9F0410446002573
:104540001E469046C80301D5302700E02027880486
:1045500004D505E041463846B0476D1C641EF9D5C8
:104560002846BDE8F0810A68531C0B601070704744
:10457000F0B587B0054600200090019002900390AE
:10458000049005902846FBF707FEC6B200240AE017
:104590002919012206A8FBF7F3FD9DF818002E2823
:1045A0001DD0641CE4B2B442F2D33A4629466846B0
:1045B000FBF7E6FDE919324603A8491CFBF7E0FDCD
:1045C0006846FBF71BFE044603A8FBF717FE04EB47
:1045D000C40101EB041107B000EB8100F0BD2746D8
:1045E000E3E7F0B587B00646002000900190029006
:1045F0000390049005903046FBF7CEFD0025C7B22E
:104600002C460AE03119012206A8FBF7B9FD9DF8F6
:1046100018002E281FD0641CE4B2BC42F2D32A46F4
:1046200031466846FBF7ACFD71193A4603A8491CB0
:10463000FBF7A6FD6846FBF7E1FD044603A8FBF780
:10464000DDFD014604EBC40202EB041001EB800027
:1046500007B080B2F0BD2546E1E770B503464FF6DE
:10466000FF7000244AF201060FE01A785040002241
:1046700010F0010F4FEA500000D07040521C92B26F
:10468000082AF5D3641CA4B25B1C8C42EDD370BD28
:1046900010B54DF23E311D48FCF78AFC41F613710E
:1046A0001B48FCF785FC4FF460411A48FCF780FC7E
:1046B0001948FEF7BAF818488030FEF7B6F81648E1
:1046C0005838FDF7D7FC1548FCF7DAF913483030B5
:1046D000FCF7D6F91248816921F0100181618169E6
:1046E00021F020018161816921F0080181618169E6
:1046F00021F004018161FDF7E9F8FCF73DFC4FF082
:10470000E020002101614161816110BD000C014088
:104710000008014000100140D0010020B00000203E
:10472000001002400EB5FC4D0227AF75FCF7DCFD12
:10473000FFF724FBFEF7A2FBFFF720FBF848F74941
:10474000002601600124C0E90264466146604FF41E
:1047500060210461C161FCF709FA1020CDE9000471
:10476000032002906946EE48FCF7D6F8FEF74AFBB4
:10477000FEF7D8FBFEF7F2FB4FF49640FEF70AFC7B
:104780004FF49670FEF71AFCE548E64960304FF0AA
:104790000408C0E9001840F67B418160FCF76EFD1B
:1047A000012205F12801E048FEF7C6F9DE480122A2
:1047B00005F118018030FEF7BFF9DC484FF47A713B
:1047C0000068B0FBF1F0401EB0F1807F09D24FF0DD
:1047D000E0214861D64AF02082F8140D8E6107204E
:1047E000086100220421D348FCF73DFD7B20688747
:1047F0000122B946AF741102CF48FCF734FD002006
:10480000FEF734FA0020FEF7DBFA0020FEF750FA3C
:104810000020FEF76FFA0020FEF78EFA0020FEF768
:10482000ADFA0420A873EC7240F2C3202887FEF78B
:10483000C1FDFEF701FE4FF48060FFF72DF9B64F82
:104840008237787040F20540FFF726F9B87040F2E1
:104850000A40FFF721F9F87040F20F40FFF71CF90A
:1048600038717978032901D387F80190B978032941
:1048700001D387F80290F978032901D387F80390D0
:10488000032801D387F80490A348AC498230DFF8AD
:1048900088B24278A1F8F8208278A1F80221C27883
:1048A000A1F80C210079A1F8160101F5A56000F12D
:1048B0000F020E30CDE900200BF1780B8A469649A5
:1048C000504601F17D058A7DAAF80220AAF85421FC
:1048D0004A7BAAF826200A8FAAF824209BF80130E8
:1048E000AAF81A309BF80230AAF81C309BF8033063
:1048F000AAF81E309BF80420AAF820206A78428289
:10490000AA788282EA78C2822A790283CA78AAF8CF
:104910000420087C01287DD10F46D8463E74BC7720
:10492000D446B87F18F8001001292AD0022928D0CF
:10493000834901EB800131F8042C0CEB4001B1F804
:104940003E31D21A92B2A1F8E420A02A01D8A1F8EF
:10495000E460401CC0B2B8770528E2D37049BE7746
:104960003031787808610846FCF700F96C4830303F
:10497000FCF788FA6A480A213030FCF7EBF968B195
:1049800013E06F490CEB4002203131F81010A2F80F
:10499000E410A029DDD8A2F8E460DAE760483030FE
:1049A000FCF7E0F8FBF74DFDF8655D483030FCF7AB
:1049B000C9FAF86DFBF757FDF96E884200D9F86621
:1049C000396F884200D23867B86E401CB8666428D8
:1049D00025D3D7E91B01411A594A7878103202EBE6
:1049E000800242F8041C642251434B4A8C3202EB91
:1049F000800252F8042CB1FBF2F2514901EB800124
:104A0000401C41F8042C4FF6FF71C7E91B61C0B28E
:104A1000BE6600E003E07870052800D37C70DFF804
:104A2000F88098F80900012837D188F80960FBF769
:104A300025FFA8F83600AAF82200B8F8500057461B
:104A400098B1A8F8506001224FF480713A48FCF701
:104A50000AFCFC80B7F8CA10B8F83600424681421A
:104A600008D9537E042B04D004E0A8F8504000225B
:104A7000EAE7D470814201D282F8199005D2B7F8E2
:104A8000CC10814201D903215176B7F8CE10814272
:104A900003D20420507688F8039098F80A00012881
:104AA00057D188F80A60434688F8024057469878FC
:104AB000411E01EB81017831CAB29A7737F81210A2
:104AC00001291BD107EB400107EB4202B1F8E410CA
:104AD000B2F804C0614506D2B2F806C0614502D9F9
:104AE000DC702C5408E083F8039005F80090D2881D
:104AF000914201D203212954A3F85460401CC0B252
:104B000098700528D3D302210A48FCF7A7FBC8B147
:104B10003C81012218E00000000000200024014038
:104B2000B000002000300040D0010020A400002090
:104B30000FE000E0000C0140000801402E0A0020B8
:104B4000BC0300203E8100224FF40041FE48FCF7E8
:104B50008AFBFE48C07B01287ED1FC480127C67332
:104B6000781EFA4B00EB80007830C0B29877BAF824
:104B7000DA205146022A02D0012A1AD023E0F44A50
:104B8000A1F8E66001EB400C5680A1F8E860968041
:104B9000A1F8EA60D6801681EC4A8232567096708F
:104BA000D6701671A1F8EC600BF80740ACF80890CD
:104BB00005E004220BF8072001EB40021481042FCA
:104BC00001D1A1F8DA603AF81010D046012906D0D8
:104BD00000F57B70FEF760FF012864D069E01BF8E8
:104BE00007205946042A09D1EA5D022A01D0032A86
:104BF00004D108EB40021389012B05D0D34A82323D
:104C0000D25D012A0AD00CE0DFF840C301F807901A
:104C10000CF1820C0CF80740A2F80890EA5D012A1A
:104C20000AD008EB4000C94A008901280DD0C246CD
:104C30009046022815D05EE008EB40000481042075
:104C40000BF80700C1488230C655F8B20422012192
:104C5000FEF7D6FCBD4800E051E004700121807FE2
:104C600045E0F8B201220021FEF7CAFC98F81E00C8
:104C7000022100F57B70FEF74DFF98F8000020B38D
:104C8000012801D1012F0BD00AEB4700A0F8E46006
:104C9000AF4800EB470020F8026C88F800602AE07B
:104CA000AB480681F9E7EC55F8B204220121FEF782
:104CB000A7FC4046DFF8948298F81E1000EB4100F4
:104CC0000089012802D0022808D014E0EC55F8B27F
:104CD00004220121FEF794FC012106E0EC55F8B214
:104CE00001220021FEF78CFC022198F81E0000F53D
:104CF0007B70FEF70FFF7F1C052FFFF631AF934D42
:104D0000E87A012803D0287B01281BD034E0EE721A
:104D10000420A873687B401CC0B26873042800D9C3
:104D20006C734FF49670FEF749F9687B00EBC00195
:104D300001EB0010874901EB4000FFF77BF885F895
:104D40000C9019E084482E730621017030214170C7
:104D500035228270C1700D2101710A214171FFF766
:104D600069F885F812906E756E844FF41650FEF750
:104D700025F90120FEF724F8E87C01287DD1EE74A6
:104D80000020FEF71DF8724874A10A302E66FBF76A
:104D900013FA014668677248FBF705FAEE842F465E
:104DA0009EE06F48FBF7FFF96D49BE843231B88C45
:104DB0000E54401C80B2B8841E28F8D369A16848FC
:104DC000FBF7CCF958B166480E2232300199FBF757
:104DD000D7F963493231A1F22A30FBF7E4F965A132
:104DE0005F48FBF7BBF958B15D48092232300099A2
:104DF000FBF7C6F95A493231A1F20230FBF7D3F979
:104E000060A15748FBF7AAF958B15548092232303A
:104E10000099FBF7B5F952493231A1F2DA20FBF7DC
:104E2000C2F95CA14E48FBF799F958B14C480922E8
:104E300032300099FBF7A4F949493231A1F2B2208E
:104E4000FBF7B1F957A14648FBF788F958B1444838
:104E5000092232300199FBF793F941493231A1F22D
:104E60008A20FBF7A0F953A13D48FBF777F968B119
:104E70003B4806223230009900E041E0FBF780F920
:104E800037493231A1F23A20FBF78DF94DA1344870
:104E9000FBF764F958B13248062232300099FBF72B
:104EA0006FF92F493231A1F21220FBF77CF949A1A9
:104EB0002B48FBF753F958B129480E22323001999B
:104EC000FBF75EF926493231A1F5F570FBF76BF976
:104ED00022A10020FBF770F97867F88C401CF88459
:104EE000796F00297FF45DAF787BFEF781F9387D1B
:104EF000797D884204D10A20B884F88C401CF8845B
:104F0000E87D01287FF4DBAC2F46EE75354DB5F812
:104F10006400F885801EC1B2A5F864602846FFF7DA
:104F20009CFB7885F98D294411F8022D497842EAD5
:104F30000121B9858142E5D12878B97D8842E1D146
:104F40000120FDF793FE4FE000100140000000201B
:104F5000DC030020900200202C0C00200D0A000031
:104F6000560F0020312D303A302E302E302E323573
:104F700035000000312D303A31352E382E312E32A9
:104F800035350000312D303A31352E382E322E3263
:104F900035350000312D303A31352E382E332E3252
:104FA00035350000312D303A332E382E302E323543
:104FB00035000000312D303A33322E372E302E326C
:104FC00035350000312D303A33312E372E302E3228
:104FD00035350000302D303A312E302E302E32351E
:104FE00035000000C409002069782846032901D053
:104FF00004290DD10346C0789A7840EA02227A86C5
:1050000058792B7940EA0323BB86B87DFEF764F814
:105010006878A84606287DD198F8032098F8020001
:10502000554642EA0020788698F8052098F8041042
:10503000642842EA0121B986F9873AF810C0A7F836
:1050400046C01CD065281DD3B5F8C8207B8F9A4276
:105050007ED1A5F8566125F810104FF6FF7264381E
:1050600002EA4000401E80B2A7F84000FEF773FD40
:10507000788E902807D00021952817D004E0AAF850
:10508000C8107C74A3E00121002211439A280FD09C
:10509000002211439F280DD00022114302D0C0B23C
:1050A000FDF7A0FF788E692806D01BE00122ECE70F
:1050B0000122EEE70122F0E7F98F25F8F01F272003
:1050C000FEF749FDF98F69813120FEF744FDF98F24
:1050D000A9823B20FEF73FFDF98FE9834520F03D93
:1050E000FEF739FD788E6A2817D1F98F25F8F21F5F
:1050F0002920FEF730FDF98F69813320FEF72BFD63
:10510000F98FA9823D20FEF726FDF98FE98347201C
:10511000F23D00E062E0FEF71EFD788E6B2815D1AF
:10512000F98F25F8F41F2B20FEF715FDF98F698103
:105130003520FEF710FDF98FA9823F20FEF70BFD09
:10514000F98FE9834920F43DFEF705FD788E00E0F4
:1051500036E06C2815D1F98F25F8F61F2D20FEF7C3
:10516000FAFCF98F69813720FEF7F5FCF98FA982E7
:105170004120FEF7F0FCF98FE9834B20F63DFEF766
:10518000EAFC788EAD2802D1F88FA5F85A01B5F85F
:105190006001642803D1FEF7DFFAA5F86061B5F875
:1051A0005E010A2813D1F02141F28730FEF7B2FCEC
:1051B0006420FBF7F1FEFFF76BFAFCF737F906E026
:1051C00025F810C0B5F85C01401CAAF85C0198F8FD
:1051D0000110BB8E7A8EB87DFDF7C4FF98F80110E0
:1051E0004046102978D10146C27880783D4642EA8F
:1051F000002078864B7998F8041043EA0121B9869B
:105200000144491EB9870821A7F84010652843D3F7
:10521000BAF8C8206B8F9A423ED1A5F844004746A1
:105220001EE0B5F840107A18795C527842EA012104
:10523000E9872AF8101035F8320F4FF6FF726438FC
:1052400002EA4000401E80B22882FEF784FC35F856
:105250000E0F801C25F8040B2888401C25F84409F3
:1052600080B2A98F8842DCD9688E8C2803D00021B7
:10527000912816D000E0012100221143962812D077
:10528000002211439B2810D00022114304D0001D9E
:105290006886C0B2FDF7A6FE2E865746AB8E6A8E94
:1052A00012E00122E9E70122EBE70122EDE708EB3A
:1052B000400191F808C0C9794CEA012102EB000CC9
:1052C000401C27F81C102886288E9842EFD398F8A7
:1052D0000110A87DFDF746FF0020FDF7C7FCFFF792
:1052E000EEBA4FF4047210B5B1FBF2F3B1FBF2F475
:1052F00002FB141141EA83210A0C02700A0A42706F
:10530000817010BD08B50A23012269460248FCF7E6
:1053100075FF9DF8000008BD2001002001B50A239B
:10532000012269460148FDF75FF808BD2001002011
:10533000F8B504468DF800001D4616460DF1010033
:10534000FFF7CFFF0020FEF797FB04216846FEF72A
:1053500085FB842C03D129463046FEF77FFB0120D4
:10536000FEF78AFB0020FEF787FBD720FEF766FBDF
:10537000FF20FEF763FBFF20FEF760FB0006FAD577
:105380000120FEF779FBF8BD0000000001020304D4
:105390000102030406070809004040404040404025
:1053A00040404141414141404040404040404040F8
:1053B000404040404040404040050202020202029C
:1053C00002020202020202020220202020202020EB
:1053D00020202002020202020202909090909090FF
:1053E00010101010101010101010101010101010BD
:1053F0001010101002020202020288888888888831
:10540000080808080808080808080808080808081C
:105410000808080802020202400000009953000830
:105420004054000800000020B000000004420008C2
:10543000F0540008B00000201013000014420008CF
:10544000000001010F0F0F0F00000000000000001E
:10545000000000000000000000000000000000004C
:10546000000000000000000000000000000000003C
:10547000000000000000000000000000000000002C
:10548000000000000000000000000000000000001C
:10549000000000000000000000000000000000000C
:1054A00000000000000000000000000000000000FC
:1054B00000000000000000000101010101010101E4
:1054C000010101010101010000000000D5020000FE
:1054D00026030000520300003A0300000000000011
:1054E0000000000000A24A040000000000000000CC
:04000005080000ED02
:00000001FF
